{
	"contracts/StorageFactory.sol": {
		"StorageFactory": {
			"abi": [
				{
					"inputs": [],
					"name": "CreateSimpleStorageContract",
					"outputs": [],
					"stateMutability": "nonpayable",
					"type": "function"
				},
				{
					"inputs": [],
					"name": "simpleStorage",
					"outputs": [
						{
							"internalType": "contract SimpleStorage",
							"name": "",
							"type": "address"
						}
					],
					"stateMutability": "view",
					"type": "function"
				}
			],
			"devdoc": {
				"kind": "dev",
				"methods": {},
				"version": 1
			},
			"evm": {
				"assembly": "    /* \"contracts/StorageFactory.sol\":117:297  contract StorageFactory{... */\n  mstore(0x40, 0x80)\n  callvalue\n  dup1\n  iszero\n  tag_1\n  jumpi\n  0x00\n  dup1\n  revert\ntag_1:\n  pop\n  dataSize(sub_0)\n  dup1\n  dataOffset(sub_0)\n  0x00\n  codecopy\n  0x00\n  return\nstop\n\nsub_0: assembly {\n        /* \"contracts/StorageFactory.sol\":117:297  contract StorageFactory{... */\n      mstore(0x40, 0x80)\n      callvalue\n      dup1\n      iszero\n      tag_1\n      jumpi\n      0x00\n      dup1\n      revert\n    tag_1:\n      pop\n      jumpi(tag_2, lt(calldatasize, 0x04))\n      shr(0xe0, calldataload(0x00))\n      dup1\n      0x6be0d6bf\n      eq\n      tag_3\n      jumpi\n      dup1\n      0x9fa05b28\n      eq\n      tag_4\n      jumpi\n    tag_2:\n      0x00\n      dup1\n      revert\n        /* \"contracts/StorageFactory.sol\":149:183  SimpleStorage public simpleStorage */\n    tag_3:\n      tag_5\n      tag_6\n      jump\t// in\n    tag_5:\n      mload(0x40)\n      tag_7\n      swap2\n      swap1\n      tag_8\n      jump\t// in\n    tag_7:\n      mload(0x40)\n      dup1\n      swap2\n      sub\n      swap1\n      return\n        /* \"contracts/StorageFactory.sol\":192:292  function CreateSimpleStorageContract() public {... */\n    tag_4:\n      tag_9\n      tag_10\n      jump\t// in\n    tag_9:\n      stop\n        /* \"contracts/StorageFactory.sol\":149:183  SimpleStorage public simpleStorage */\n    tag_6:\n      0x00\n      dup1\n      sload\n      swap1\n      0x0100\n      exp\n      swap1\n      div\n      0xffffffffffffffffffffffffffffffffffffffff\n      and\n      dup2\n      jump\t// out\n        /* \"contracts/StorageFactory.sol\":192:292  function CreateSimpleStorageContract() public {... */\n    tag_10:\n        /* \"contracts/StorageFactory.sol\":265:284  new SimpleStorage() */\n      mload(0x40)\n      tag_12\n      swap1\n      tag_13\n      jump\t// in\n    tag_12:\n      mload(0x40)\n      dup1\n      swap2\n      sub\n      swap1\n      0x00\n      create\n      dup1\n      iszero\n      dup1\n      iszero\n      tag_14\n      jumpi\n      returndatasize\n      0x00\n      dup1\n      returndatacopy\n      revert(0x00, returndatasize)\n    tag_14:\n      pop\n        /* \"contracts/StorageFactory.sol\":249:262  simpleStorage */\n      0x00\n      dup1\n        /* \"contracts/StorageFactory.sol\":249:284  simpleStorage = new SimpleStorage() */\n      0x0100\n      exp\n      dup2\n      sload\n      dup2\n      0xffffffffffffffffffffffffffffffffffffffff\n      mul\n      not\n      and\n      swap1\n      dup4\n      0xffffffffffffffffffffffffffffffffffffffff\n      and\n      mul\n      or\n      swap1\n      sstore\n      pop\n        /* \"contracts/StorageFactory.sol\":192:292  function CreateSimpleStorageContract() public {... */\n      jump\t// out\n    tag_13:\n      dataSize(sub_0)\n      dup1\n      dataOffset(sub_0)\n      dup4\n      codecopy\n      add\n      swap1\n      jump\t// out\n        /* \"#utility.yul\":7:133   */\n    tag_15:\n        /* \"#utility.yul\":44:51   */\n      0x00\n        /* \"#utility.yul\":84:126   */\n      0xffffffffffffffffffffffffffffffffffffffff\n        /* \"#utility.yul\":77:82   */\n      dup3\n        /* \"#utility.yul\":73:127   */\n      and\n        /* \"#utility.yul\":62:127   */\n      swap1\n      pop\n        /* \"#utility.yul\":7:133   */\n      swap2\n      swap1\n      pop\n      jump\t// out\n        /* \"#utility.yul\":139:199   */\n    tag_16:\n        /* \"#utility.yul\":167:170   */\n      0x00\n        /* \"#utility.yul\":188:193   */\n      dup2\n        /* \"#utility.yul\":181:193   */\n      swap1\n      pop\n        /* \"#utility.yul\":139:199   */\n      swap2\n      swap1\n      pop\n      jump\t// out\n        /* \"#utility.yul\":205:347   */\n    tag_17:\n        /* \"#utility.yul\":255:264   */\n      0x00\n        /* \"#utility.yul\":288:341   */\n      tag_25\n        /* \"#utility.yul\":306:340   */\n      tag_26\n        /* \"#utility.yul\":315:339   */\n      tag_27\n        /* \"#utility.yul\":333:338   */\n      dup5\n        /* \"#utility.yul\":315:339   */\n      tag_15\n      jump\t// in\n    tag_27:\n        /* \"#utility.yul\":306:340   */\n      tag_16\n      jump\t// in\n    tag_26:\n        /* \"#utility.yul\":288:341   */\n      tag_15\n      jump\t// in\n    tag_25:\n        /* \"#utility.yul\":275:341   */\n      swap1\n      pop\n        /* \"#utility.yul\":205:347   */\n      swap2\n      swap1\n      pop\n      jump\t// out\n        /* \"#utility.yul\":353:479   */\n    tag_18:\n        /* \"#utility.yul\":403:412   */\n      0x00\n        /* \"#utility.yul\":436:473   */\n      tag_29\n        /* \"#utility.yul\":467:472   */\n      dup3\n        /* \"#utility.yul\":436:473   */\n      tag_17\n      jump\t// in\n    tag_29:\n        /* \"#utility.yul\":423:473   */\n      swap1\n      pop\n        /* \"#utility.yul\":353:479   */\n      swap2\n      swap1\n      pop\n      jump\t// out\n        /* \"#utility.yul\":485:632   */\n    tag_19:\n        /* \"#utility.yul\":556:565   */\n      0x00\n        /* \"#utility.yul\":589:626   */\n      tag_31\n        /* \"#utility.yul\":620:625   */\n      dup3\n        /* \"#utility.yul\":589:626   */\n      tag_18\n      jump\t// in\n    tag_31:\n        /* \"#utility.yul\":576:626   */\n      swap1\n      pop\n        /* \"#utility.yul\":485:632   */\n      swap2\n      swap1\n      pop\n      jump\t// out\n        /* \"#utility.yul\":638:811   */\n    tag_20:\n        /* \"#utility.yul\":746:804   */\n      tag_33\n        /* \"#utility.yul\":798:803   */\n      dup2\n        /* \"#utility.yul\":746:804   */\n      tag_19\n      jump\t// in\n    tag_33:\n        /* \"#utility.yul\":741:744   */\n      dup3\n        /* \"#utility.yul\":734:805   */\n      mstore\n        /* \"#utility.yul\":638:811   */\n      pop\n      pop\n      jump\t// out\n        /* \"#utility.yul\":817:1081   */\n    tag_8:\n        /* \"#utility.yul\":931:935   */\n      0x00\n        /* \"#utility.yul\":969:971   */\n      0x20\n        /* \"#utility.yul\":958:967   */\n      dup3\n        /* \"#utility.yul\":954:972   */\n      add\n        /* \"#utility.yul\":946:972   */\n      swap1\n      pop\n        /* \"#utility.yul\":982:1074   */\n      tag_35\n        /* \"#utility.yul\":1071:1072   */\n      0x00\n        /* \"#utility.yul\":1060:1069   */\n      dup4\n        /* \"#utility.yul\":1056:1073   */\n      add\n        /* \"#utility.yul\":1047:1053   */\n      dup5\n        /* \"#utility.yul\":982:1074   */\n      tag_20\n      jump\t// in\n    tag_35:\n        /* \"#utility.yul\":817:1081   */\n      swap3\n      swap2\n      pop\n      pop\n      jump\t// out\n    stop\n\n    sub_0: assembly {\n            /* \"contracts/SimpleStorage.sol\":61:1064  contract SimpleStorage {... */\n          mstore(0x40, 0x80)\n            /* \"contracts/SimpleStorage.sol\":116:120  true */\n          0x01\n            /* \"contracts/SimpleStorage.sol\":91:120  bool hasFavoriteNumber = true */\n          0x00\n          dup1\n          0x0100\n          exp\n          dup2\n          sload\n          dup2\n          0xff\n          mul\n          not\n          and\n          swap1\n          dup4\n          iszero\n          iszero\n          mul\n          or\n          swap1\n          sstore\n          pop\n            /* \"contracts/SimpleStorage.sol\":133:156  bytes4 mybytes = \"test\" */\n          0x7465737400000000000000000000000000000000000000000000000000000000\n          0x00\n          exp(0x0100, 0x01)\n          dup2\n          sload\n          dup2\n          0xffffffff\n          mul\n          not\n          and\n          swap1\n          dup4\n          0xe0\n          shr\n          mul\n          or\n          swap1\n          sstore\n          pop\n            /* \"contracts/SimpleStorage.sol\":201:202  0 */\n          0x00\n            /* \"contracts/SimpleStorage.sol\":169:202  uint256 public favoriteNumber = 0 */\n          0x01\n          sstore\n            /* \"contracts/SimpleStorage.sol\":278:279  0 */\n          0x00\n            /* \"contracts/SimpleStorage.sol\":273:276  1-1 */\n          dup1\n            /* \"contracts/SimpleStorage.sol\":273:279  1-1==0 */\n          eq\n            /* \"contracts/SimpleStorage.sol\":273:287  1-1==0||1%2==1 */\n          dup1\n          tag_1\n          jumpi\n          pop\n            /* \"contracts/SimpleStorage.sol\":286:287  1 */\n          0x01\n            /* \"contracts/SimpleStorage.sol\":281:284  1%2 */\n          dup1\n            /* \"contracts/SimpleStorage.sol\":281:287  1%2==1 */\n          eq\n            /* \"contracts/SimpleStorage.sol\":273:287  1-1==0||1%2==1 */\n        tag_1:\n            /* \"contracts/SimpleStorage.sol\":257:287  bool public a = 1-1==0||1%2==1 */\n          0x03\n          exp(0x0100, 0x00)\n          dup2\n          sload\n          dup2\n          0xff\n          mul\n          not\n          and\n          swap1\n          dup4\n          iszero\n          iszero\n          mul\n          or\n          swap1\n          sstore\n          pop\n            /* \"contracts/SimpleStorage.sol\":478:492  Actionset.hold */\n          0x01\n            /* \"contracts/SimpleStorage.sol\":458:492  Actionset _action = Actionset.hold */\n          0x05\n          exp(0x0100, 0x00)\n          dup2\n          sload\n          dup2\n          0xff\n          mul\n          not\n          and\n          swap1\n          dup4\n          0x02\n          dup2\n          gt\n          iszero\n          tag_2\n          jumpi\n          tag_3\n          tag_4\n          jump\t// in\n        tag_3:\n        tag_2:\n          mul\n          or\n          swap1\n          sstore\n          pop\n            /* \"contracts/SimpleStorage.sol\":61:1064  contract SimpleStorage {... */\n          callvalue\n          dup1\n          iszero\n          tag_5\n          jumpi\n          0x00\n          dup1\n          revert\n        tag_5:\n          pop\n          jump(tag_6)\n            /* \"#utility.yul\":7:187   */\n        tag_4:\n            /* \"#utility.yul\":55:132   */\n          0x4e487b7100000000000000000000000000000000000000000000000000000000\n            /* \"#utility.yul\":52:53   */\n          0x00\n            /* \"#utility.yul\":45:133   */\n          mstore\n            /* \"#utility.yul\":152:156   */\n          0x21\n            /* \"#utility.yul\":149:150   */\n          0x04\n            /* \"#utility.yul\":142:157   */\n          mstore\n            /* \"#utility.yul\":176:180   */\n          0x24\n            /* \"#utility.yul\":173:174   */\n          0x00\n            /* \"#utility.yul\":166:181   */\n          revert\n            /* \"contracts/SimpleStorage.sol\":61:1064  contract SimpleStorage {... */\n        tag_6:\n          dataSize(sub_0)\n          dup1\n          dataOffset(sub_0)\n          0x00\n          codecopy\n          0x00\n          return\n        stop\n\n        sub_0: assembly {\n                /* \"contracts/SimpleStorage.sol\":61:1064  contract SimpleStorage {... */\n              mstore(0x40, 0x80)\n              callvalue\n              dup1\n              iszero\n              tag_1\n              jumpi\n              0x00\n              dup1\n              revert\n            tag_1:\n              pop\n              jumpi(tag_2, lt(calldatasize, 0x04))\n              shr(0xe0, calldataload(0x00))\n              dup1\n              0x5ec0e9c9\n              gt\n              tag_11\n              jumpi\n              dup1\n              0x5ec0e9c9\n              eq\n              tag_7\n              jumpi\n              dup1\n              0x69404ebd\n              eq\n              tag_8\n              jumpi\n              dup1\n              0x8f1d4226\n              eq\n              tag_9\n              jumpi\n              dup1\n              0x96e567f4\n              eq\n              tag_10\n              jumpi\n              jump(tag_2)\n            tag_11:\n              dup1\n              0x0dbe671f\n              eq\n              tag_3\n              jumpi\n              dup1\n              0x0e4c2805\n              eq\n              tag_4\n              jumpi\n              dup1\n              0x2e64cec1\n              eq\n              tag_5\n              jumpi\n              dup1\n              0x471f7cdf\n              eq\n              tag_6\n              jumpi\n            tag_2:\n              0x00\n              dup1\n              revert\n                /* \"contracts/SimpleStorage.sol\":257:287  bool public a = 1-1==0||1%2==1 */\n            tag_3:\n              tag_12\n              tag_13\n              jump\t// in\n            tag_12:\n              mload(0x40)\n              tag_14\n              swap2\n              swap1\n              tag_15\n              jump\t// in\n            tag_14:\n              mload(0x40)\n              dup1\n              swap2\n              sub\n              swap1\n              return\n                /* \"contracts/SimpleStorage.sol\":975:1057  function check_action() public view returns(bool){... */\n            tag_4:\n              tag_16\n              tag_17\n              jump\t// in\n            tag_16:\n              mload(0x40)\n              tag_18\n              swap2\n              swap1\n              tag_15\n              jump\t// in\n            tag_18:\n              mload(0x40)\n              dup1\n              swap2\n              sub\n              swap1\n              return\n                /* \"contracts/SimpleStorage.sol\":670:758  function retrieve() public view returns(uint256){... */\n            tag_5:\n              tag_19\n              tag_20\n              jump\t// in\n            tag_19:\n              mload(0x40)\n              tag_21\n              swap2\n              swap1\n              tag_22\n              jump\t// in\n            tag_21:\n              mload(0x40)\n              dup1\n              swap2\n              sub\n              swap1\n              return\n                /* \"contracts/SimpleStorage.sol\":169:202  uint256 public favoriteNumber = 0 */\n            tag_6:\n              tag_23\n              tag_24\n              jump\t// in\n            tag_23:\n              mload(0x40)\n              tag_25\n              swap2\n              swap1\n              tag_22\n              jump\t// in\n            tag_25:\n              mload(0x40)\n              dup1\n              swap2\n              sub\n              swap1\n              return\n                /* \"contracts/SimpleStorage.sol\":381:411  Person[] public list_of_people */\n            tag_7:\n              tag_26\n              0x04\n              dup1\n              calldatasize\n              sub\n              dup2\n              add\n              swap1\n              tag_27\n              swap2\n              swap1\n              tag_28\n              jump\t// in\n            tag_27:\n              tag_29\n              jump\t// in\n            tag_26:\n              mload(0x40)\n              tag_30\n              swap3\n              swap2\n              swap1\n              tag_31\n              jump\t// in\n            tag_30:\n              mload(0x40)\n              dup1\n              swap2\n              sub\n              swap1\n              return\n                /* \"contracts/SimpleStorage.sol\":560:658  function Store(uint256 _favoriteNumber) public {... */\n            tag_8:\n              tag_32\n              0x04\n              dup1\n              calldatasize\n              sub\n              dup2\n              add\n              swap1\n              tag_33\n              swap2\n              swap1\n              tag_28\n              jump\t// in\n            tag_33:\n              tag_34\n              jump\t// in\n            tag_32:\n              stop\n                /* \"contracts/SimpleStorage.sol\":766:967  function add_list_of_person(string memory  _name, uint256 _favoriteNumber) public{... */\n            tag_9:\n              tag_35\n              0x04\n              dup1\n              calldatasize\n              sub\n              dup2\n              add\n              swap1\n              tag_36\n              swap2\n              swap1\n              tag_37\n              jump\t// in\n            tag_36:\n              tag_38\n              jump\t// in\n            tag_35:\n              stop\n                /* \"contracts/SimpleStorage.sol\":501:547  mapping(string => uint256) public NametoNumber */\n            tag_10:\n              tag_39\n              0x04\n              dup1\n              calldatasize\n              sub\n              dup2\n              add\n              swap1\n              tag_40\n              swap2\n              swap1\n              tag_41\n              jump\t// in\n            tag_40:\n              tag_42\n              jump\t// in\n            tag_39:\n              mload(0x40)\n              tag_43\n              swap2\n              swap1\n              tag_22\n              jump\t// in\n            tag_43:\n              mload(0x40)\n              dup1\n              swap2\n              sub\n              swap1\n              return\n                /* \"contracts/SimpleStorage.sol\":257:287  bool public a = 1-1==0||1%2==1 */\n            tag_13:\n              0x03\n              0x00\n              swap1\n              sload\n              swap1\n              0x0100\n              exp\n              swap1\n              div\n              0xff\n              and\n              dup2\n              jump\t// out\n                /* \"contracts/SimpleStorage.sol\":975:1057  function check_action() public view returns(bool){... */\n            tag_17:\n                /* \"contracts/SimpleStorage.sol\":1019:1023  bool */\n              0x00\n                /* \"contracts/SimpleStorage.sol\":1047:1048  a */\n              0x03\n              0x00\n              swap1\n              sload\n              swap1\n              0x0100\n              exp\n              swap1\n              div\n              0xff\n              and\n                /* \"contracts/SimpleStorage.sol\":1035:1049  return bool(a) */\n              swap1\n              pop\n                /* \"contracts/SimpleStorage.sol\":975:1057  function check_action() public view returns(bool){... */\n              swap1\n              jump\t// out\n                /* \"contracts/SimpleStorage.sol\":670:758  function retrieve() public view returns(uint256){... */\n            tag_20:\n                /* \"contracts/SimpleStorage.sol\":710:717  uint256 */\n              0x00\n                /* \"contracts/SimpleStorage.sol\":736:750  favoriteNumber */\n              sload(0x01)\n                /* \"contracts/SimpleStorage.sol\":729:750  return favoriteNumber */\n              swap1\n              pop\n                /* \"contracts/SimpleStorage.sol\":670:758  function retrieve() public view returns(uint256){... */\n              swap1\n              jump\t// out\n                /* \"contracts/SimpleStorage.sol\":169:202  uint256 public favoriteNumber = 0 */\n            tag_24:\n              sload(0x01)\n              dup2\n              jump\t// out\n                /* \"contracts/SimpleStorage.sol\":381:411  Person[] public list_of_people */\n            tag_29:\n              0x04\n              dup2\n              dup2\n              sload\n              dup2\n              lt\n              tag_46\n              jumpi\n              0x00\n              dup1\n              revert\n            tag_46:\n              swap1\n              0x00\n              mstore\n              keccak256(0x00, 0x20)\n              swap1\n              0x02\n              mul\n              add\n              0x00\n              swap2\n              pop\n              swap1\n              pop\n              dup1\n              0x00\n              add\n              sload\n              swap1\n              dup1\n              0x01\n              add\n              dup1\n              sload\n              tag_48\n              swap1\n              tag_49\n              jump\t// in\n            tag_48:\n              dup1\n              0x1f\n              add\n              0x20\n              dup1\n              swap2\n              div\n              mul\n              0x20\n              add\n              mload(0x40)\n              swap1\n              dup2\n              add\n              0x40\n              mstore\n              dup1\n              swap3\n              swap2\n              swap1\n              dup2\n              dup2\n              mstore\n              0x20\n              add\n              dup3\n              dup1\n              sload\n              tag_50\n              swap1\n              tag_49\n              jump\t// in\n            tag_50:\n              dup1\n              iszero\n              tag_51\n              jumpi\n              dup1\n              0x1f\n              lt\n              tag_52\n              jumpi\n              0x0100\n              dup1\n              dup4\n              sload\n              div\n              mul\n              dup4\n              mstore\n              swap2\n              0x20\n              add\n              swap2\n              jump(tag_51)\n            tag_52:\n              dup3\n              add\n              swap2\n              swap1\n              0x00\n              mstore\n              keccak256(0x00, 0x20)\n              swap1\n            tag_53:\n              dup2\n              sload\n              dup2\n              mstore\n              swap1\n              0x01\n              add\n              swap1\n              0x20\n              add\n              dup1\n              dup4\n              gt\n              tag_53\n              jumpi\n              dup3\n              swap1\n              sub\n              0x1f\n              and\n              dup3\n              add\n              swap2\n            tag_51:\n              pop\n              pop\n              pop\n              pop\n              pop\n              swap1\n              pop\n              dup3\n              jump\t// out\n                /* \"contracts/SimpleStorage.sol\":560:658  function Store(uint256 _favoriteNumber) public {... */\n            tag_34:\n                /* \"contracts/SimpleStorage.sol\":635:650  _favoriteNumber */\n              dup1\n                /* \"contracts/SimpleStorage.sol\":618:632  favoriteNumber */\n              0x01\n                /* \"contracts/SimpleStorage.sol\":618:650  favoriteNumber = _favoriteNumber */\n              dup2\n              swap1\n              sstore\n              pop\n                /* \"contracts/SimpleStorage.sol\":560:658  function Store(uint256 _favoriteNumber) public {... */\n              pop\n              jump\t// out\n                /* \"contracts/SimpleStorage.sol\":766:967  function add_list_of_person(string memory  _name, uint256 _favoriteNumber) public{... */\n            tag_38:\n                /* \"contracts/SimpleStorage.sol\":858:872  list_of_people */\n              0x04\n                /* \"contracts/SimpleStorage.sol\":879:909  Person(_favoriteNumber, _name) */\n              mload(0x40)\n              dup1\n              0x40\n              add\n              0x40\n              mstore\n              dup1\n                /* \"contracts/SimpleStorage.sol\":886:901  _favoriteNumber */\n              dup4\n                /* \"contracts/SimpleStorage.sol\":879:909  Person(_favoriteNumber, _name) */\n              dup2\n              mstore\n              0x20\n              add\n                /* \"contracts/SimpleStorage.sol\":903:908  _name */\n              dup5\n                /* \"contracts/SimpleStorage.sol\":879:909  Person(_favoriteNumber, _name) */\n              dup2\n              mstore\n              pop\n                /* \"contracts/SimpleStorage.sol\":858:911  list_of_people.push( Person(_favoriteNumber, _name) ) */\n              swap1\n              dup1\n              0x01\n              dup2\n              sload\n              add\n              dup1\n              dup3\n              sstore\n              dup1\n              swap2\n              pop\n              pop\n              0x01\n              swap1\n              sub\n              swap1\n              0x00\n              mstore\n              keccak256(0x00, 0x20)\n              swap1\n              0x02\n              mul\n              add\n              0x00\n              swap1\n              swap2\n              swap1\n              swap2\n              swap1\n              swap2\n              pop\n              0x00\n              dup3\n              add\n              mload\n              dup2\n              0x00\n              add\n              sstore\n              0x20\n              dup3\n              add\n              mload\n              dup2\n              0x01\n              add\n              swap1\n              dup2\n              tag_57\n              swap2\n              swap1\n              tag_58\n              jump\t// in\n            tag_57:\n              pop\n              pop\n              pop\n                /* \"contracts/SimpleStorage.sol\":944:959  _favoriteNumber */\n              dup1\n                /* \"contracts/SimpleStorage.sol\":922:934  NametoNumber */\n              0x06\n                /* \"contracts/SimpleStorage.sol\":935:940  _name */\n              dup4\n                /* \"contracts/SimpleStorage.sol\":922:941  NametoNumber[_name] */\n              mload(0x40)\n              tag_59\n              swap2\n              swap1\n              tag_60\n              jump\t// in\n            tag_59:\n              swap1\n              dup2\n              mstore\n              0x20\n              add\n              mload(0x40)\n              dup1\n              swap2\n              sub\n              swap1\n              keccak256\n                /* \"contracts/SimpleStorage.sol\":922:959  NametoNumber[_name] = _favoriteNumber */\n              dup2\n              swap1\n              sstore\n              pop\n                /* \"contracts/SimpleStorage.sol\":766:967  function add_list_of_person(string memory  _name, uint256 _favoriteNumber) public{... */\n              pop\n              pop\n              jump\t// out\n                /* \"contracts/SimpleStorage.sol\":501:547  mapping(string => uint256) public NametoNumber */\n            tag_42:\n              0x06\n              dup2\n              dup1\n              mload\n              0x20\n              dup2\n              add\n              dup3\n              add\n              dup1\n              mload\n              dup5\n              dup3\n              mstore\n              0x20\n              dup4\n              add\n              0x20\n              dup6\n              add\n              keccak256\n              dup2\n              dup4\n              mstore\n              dup1\n              swap6\n              pop\n              pop\n              pop\n              pop\n              pop\n              pop\n              0x00\n              swap2\n              pop\n              swap1\n              pop\n              sload\n              dup2\n              jump\t// out\n                /* \"#utility.yul\":7:97   */\n            tag_61:\n                /* \"#utility.yul\":41:48   */\n              0x00\n                /* \"#utility.yul\":84:89   */\n              dup2\n                /* \"#utility.yul\":77:90   */\n              iszero\n                /* \"#utility.yul\":70:91   */\n              iszero\n                /* \"#utility.yul\":59:91   */\n              swap1\n              pop\n                /* \"#utility.yul\":7:97   */\n              swap2\n              swap1\n              pop\n              jump\t// out\n                /* \"#utility.yul\":103:212   */\n            tag_62:\n                /* \"#utility.yul\":184:205   */\n              tag_105\n                /* \"#utility.yul\":199:204   */\n              dup2\n                /* \"#utility.yul\":184:205   */\n              tag_61\n              jump\t// in\n            tag_105:\n                /* \"#utility.yul\":179:182   */\n              dup3\n                /* \"#utility.yul\":172:206   */\n              mstore\n                /* \"#utility.yul\":103:212   */\n              pop\n              pop\n              jump\t// out\n                /* \"#utility.yul\":218:428   */\n            tag_15:\n                /* \"#utility.yul\":305:309   */\n              0x00\n                /* \"#utility.yul\":343:345   */\n              0x20\n                /* \"#utility.yul\":332:341   */\n              dup3\n                /* \"#utility.yul\":328:346   */\n              add\n                /* \"#utility.yul\":320:346   */\n              swap1\n              pop\n                /* \"#utility.yul\":356:421   */\n              tag_107\n                /* \"#utility.yul\":418:419   */\n              0x00\n                /* \"#utility.yul\":407:416   */\n              dup4\n                /* \"#utility.yul\":403:420   */\n              add\n                /* \"#utility.yul\":394:400   */\n              dup5\n                /* \"#utility.yul\":356:421   */\n              tag_62\n              jump\t// in\n            tag_107:\n                /* \"#utility.yul\":218:428   */\n              swap3\n              swap2\n              pop\n              pop\n              jump\t// out\n                /* \"#utility.yul\":434:511   */\n            tag_63:\n                /* \"#utility.yul\":471:478   */\n              0x00\n                /* \"#utility.yul\":500:505   */\n              dup2\n                /* \"#utility.yul\":489:505   */\n              swap1\n              pop\n                /* \"#utility.yul\":434:511   */\n              swap2\n              swap1\n              pop\n              jump\t// out\n                /* \"#utility.yul\":517:635   */\n            tag_64:\n                /* \"#utility.yul\":604:628   */\n              tag_110\n                /* \"#utility.yul\":622:627   */\n              dup2\n                /* \"#utility.yul\":604:628   */\n              tag_63\n              jump\t// in\n            tag_110:\n                /* \"#utility.yul\":599:602   */\n              dup3\n                /* \"#utility.yul\":592:629   */\n              mstore\n                /* \"#utility.yul\":517:635   */\n              pop\n              pop\n              jump\t// out\n                /* \"#utility.yul\":641:863   */\n            tag_22:\n                /* \"#utility.yul\":734:738   */\n              0x00\n                /* \"#utility.yul\":772:774   */\n              0x20\n                /* \"#utility.yul\":761:770   */\n              dup3\n                /* \"#utility.yul\":757:775   */\n              add\n                /* \"#utility.yul\":749:775   */\n              swap1\n              pop\n                /* \"#utility.yul\":785:856   */\n              tag_112\n                /* \"#utility.yul\":853:854   */\n              0x00\n                /* \"#utility.yul\":842:851   */\n              dup4\n                /* \"#utility.yul\":838:855   */\n              add\n                /* \"#utility.yul\":829:835   */\n              dup5\n                /* \"#utility.yul\":785:856   */\n              tag_64\n              jump\t// in\n            tag_112:\n                /* \"#utility.yul\":641:863   */\n              swap3\n              swap2\n              pop\n              pop\n              jump\t// out\n                /* \"#utility.yul\":869:944   */\n            tag_65:\n                /* \"#utility.yul\":902:908   */\n              0x00\n                /* \"#utility.yul\":935:937   */\n              0x40\n                /* \"#utility.yul\":929:938   */\n              mload\n                /* \"#utility.yul\":919:938   */\n              swap1\n              pop\n                /* \"#utility.yul\":869:944   */\n              swap1\n              jump\t// out\n                /* \"#utility.yul\":950:1067   */\n            tag_66:\n                /* \"#utility.yul\":1059:1060   */\n              0x00\n                /* \"#utility.yul\":1056:1057   */\n              dup1\n                /* \"#utility.yul\":1049:1061   */\n              revert\n                /* \"#utility.yul\":1073:1190   */\n            tag_67:\n                /* \"#utility.yul\":1182:1183   */\n              0x00\n                /* \"#utility.yul\":1179:1180   */\n              dup1\n                /* \"#utility.yul\":1172:1184   */\n              revert\n                /* \"#utility.yul\":1196:1318   */\n            tag_68:\n                /* \"#utility.yul\":1269:1293   */\n              tag_117\n                /* \"#utility.yul\":1287:1292   */\n              dup2\n                /* \"#utility.yul\":1269:1293   */\n              tag_63\n              jump\t// in\n            tag_117:\n                /* \"#utility.yul\":1262:1267   */\n              dup2\n                /* \"#utility.yul\":1259:1294   */\n              eq\n                /* \"#utility.yul\":1249:1312   */\n              tag_118\n              jumpi\n                /* \"#utility.yul\":1308:1309   */\n              0x00\n                /* \"#utility.yul\":1305:1306   */\n              dup1\n                /* \"#utility.yul\":1298:1310   */\n              revert\n                /* \"#utility.yul\":1249:1312   */\n            tag_118:\n                /* \"#utility.yul\":1196:1318   */\n              pop\n              jump\t// out\n                /* \"#utility.yul\":1324:1463   */\n            tag_69:\n                /* \"#utility.yul\":1370:1375   */\n              0x00\n                /* \"#utility.yul\":1408:1414   */\n              dup2\n                /* \"#utility.yul\":1395:1415   */\n              calldataload\n                /* \"#utility.yul\":1386:1415   */\n              swap1\n              pop\n                /* \"#utility.yul\":1424:1457   */\n              tag_120\n                /* \"#utility.yul\":1451:1456   */\n              dup2\n                /* \"#utility.yul\":1424:1457   */\n              tag_68\n              jump\t// in\n            tag_120:\n                /* \"#utility.yul\":1324:1463   */\n              swap3\n              swap2\n              pop\n              pop\n              jump\t// out\n                /* \"#utility.yul\":1469:1798   */\n            tag_28:\n                /* \"#utility.yul\":1528:1534   */\n              0x00\n                /* \"#utility.yul\":1577:1579   */\n              0x20\n                /* \"#utility.yul\":1565:1574   */\n              dup3\n                /* \"#utility.yul\":1556:1563   */\n              dup5\n                /* \"#utility.yul\":1552:1575   */\n              sub\n                /* \"#utility.yul\":1548:1580   */\n              slt\n                /* \"#utility.yul\":1545:1664   */\n              iszero\n              tag_122\n              jumpi\n                /* \"#utility.yul\":1583:1662   */\n              tag_123\n              tag_66\n              jump\t// in\n            tag_123:\n                /* \"#utility.yul\":1545:1664   */\n            tag_122:\n                /* \"#utility.yul\":1703:1704   */\n              0x00\n                /* \"#utility.yul\":1728:1781   */\n              tag_124\n                /* \"#utility.yul\":1773:1780   */\n              dup5\n                /* \"#utility.yul\":1764:1770   */\n              dup3\n                /* \"#utility.yul\":1753:1762   */\n              dup6\n                /* \"#utility.yul\":1749:1771   */\n              add\n                /* \"#utility.yul\":1728:1781   */\n              tag_69\n              jump\t// in\n            tag_124:\n                /* \"#utility.yul\":1718:1781   */\n              swap2\n              pop\n                /* \"#utility.yul\":1674:1791   */\n              pop\n                /* \"#utility.yul\":1469:1798   */\n              swap3\n              swap2\n              pop\n              pop\n              jump\t// out\n                /* \"#utility.yul\":1804:1903   */\n            tag_70:\n                /* \"#utility.yul\":1856:1862   */\n              0x00\n                /* \"#utility.yul\":1890:1895   */\n              dup2\n                /* \"#utility.yul\":1884:1896   */\n              mload\n                /* \"#utility.yul\":1874:1896   */\n              swap1\n              pop\n                /* \"#utility.yul\":1804:1903   */\n              swap2\n              swap1\n              pop\n              jump\t// out\n                /* \"#utility.yul\":1909:2078   */\n            tag_71:\n                /* \"#utility.yul\":1993:2004   */\n              0x00\n                /* \"#utility.yul\":2027:2033   */\n              dup3\n                /* \"#utility.yul\":2022:2025   */\n              dup3\n                /* \"#utility.yul\":2015:2034   */\n              mstore\n                /* \"#utility.yul\":2067:2071   */\n              0x20\n                /* \"#utility.yul\":2062:2065   */\n              dup3\n                /* \"#utility.yul\":2058:2072   */\n              add\n                /* \"#utility.yul\":2043:2072   */\n              swap1\n              pop\n                /* \"#utility.yul\":1909:2078   */\n              swap3\n              swap2\n              pop\n              pop\n              jump\t// out\n                /* \"#utility.yul\":2084:2330   */\n            tag_72:\n                /* \"#utility.yul\":2165:2166   */\n              0x00\n                /* \"#utility.yul\":2175:2288   */\n            tag_128:\n                /* \"#utility.yul\":2189:2195   */\n              dup4\n                /* \"#utility.yul\":2186:2187   */\n              dup2\n                /* \"#utility.yul\":2183:2196   */\n              lt\n                /* \"#utility.yul\":2175:2288   */\n              iszero\n              tag_130\n              jumpi\n                /* \"#utility.yul\":2274:2275   */\n              dup1\n                /* \"#utility.yul\":2269:2272   */\n              dup3\n                /* \"#utility.yul\":2265:2276   */\n              add\n                /* \"#utility.yul\":2259:2277   */\n              mload\n                /* \"#utility.yul\":2255:2256   */\n              dup2\n                /* \"#utility.yul\":2250:2253   */\n              dup5\n                /* \"#utility.yul\":2246:2257   */\n              add\n                /* \"#utility.yul\":2239:2278   */\n              mstore\n                /* \"#utility.yul\":2211:2213   */\n              0x20\n                /* \"#utility.yul\":2208:2209   */\n              dup2\n                /* \"#utility.yul\":2204:2214   */\n              add\n                /* \"#utility.yul\":2199:2214   */\n              swap1\n              pop\n                /* \"#utility.yul\":2175:2288   */\n              jump(tag_128)\n            tag_130:\n                /* \"#utility.yul\":2322:2323   */\n              0x00\n                /* \"#utility.yul\":2313:2319   */\n              dup5\n                /* \"#utility.yul\":2308:2311   */\n              dup5\n                /* \"#utility.yul\":2304:2320   */\n              add\n                /* \"#utility.yul\":2297:2324   */\n              mstore\n                /* \"#utility.yul\":2146:2330   */\n              pop\n                /* \"#utility.yul\":2084:2330   */\n              pop\n              pop\n              pop\n              jump\t// out\n                /* \"#utility.yul\":2336:2438   */\n            tag_73:\n                /* \"#utility.yul\":2377:2383   */\n              0x00\n                /* \"#utility.yul\":2428:2430   */\n              0x1f\n                /* \"#utility.yul\":2424:2431   */\n              not\n                /* \"#utility.yul\":2419:2421   */\n              0x1f\n                /* \"#utility.yul\":2412:2417   */\n              dup4\n                /* \"#utility.yul\":2408:2422   */\n              add\n                /* \"#utility.yul\":2404:2432   */\n              and\n                /* \"#utility.yul\":2394:2432   */\n              swap1\n              pop\n                /* \"#utility.yul\":2336:2438   */\n              swap2\n              swap1\n              pop\n              jump\t// out\n                /* \"#utility.yul\":2444:2821   */\n            tag_74:\n                /* \"#utility.yul\":2532:2535   */\n              0x00\n                /* \"#utility.yul\":2560:2599   */\n              tag_133\n                /* \"#utility.yul\":2593:2598   */\n              dup3\n                /* \"#utility.yul\":2560:2599   */\n              tag_70\n              jump\t// in\n            tag_133:\n                /* \"#utility.yul\":2615:2686   */\n              tag_134\n                /* \"#utility.yul\":2679:2685   */\n              dup2\n                /* \"#utility.yul\":2674:2677   */\n              dup6\n                /* \"#utility.yul\":2615:2686   */\n              tag_71\n              jump\t// in\n            tag_134:\n                /* \"#utility.yul\":2608:2686   */\n              swap4\n              pop\n                /* \"#utility.yul\":2695:2760   */\n              tag_135\n                /* \"#utility.yul\":2753:2759   */\n              dup2\n                /* \"#utility.yul\":2748:2751   */\n              dup6\n                /* \"#utility.yul\":2741:2745   */\n              0x20\n                /* \"#utility.yul\":2734:2739   */\n              dup7\n                /* \"#utility.yul\":2730:2746   */\n              add\n                /* \"#utility.yul\":2695:2760   */\n              tag_72\n              jump\t// in\n            tag_135:\n                /* \"#utility.yul\":2785:2814   */\n              tag_136\n                /* \"#utility.yul\":2807:2813   */\n              dup2\n                /* \"#utility.yul\":2785:2814   */\n              tag_73\n              jump\t// in\n            tag_136:\n                /* \"#utility.yul\":2780:2783   */\n              dup5\n                /* \"#utility.yul\":2776:2815   */\n              add\n                /* \"#utility.yul\":2769:2815   */\n              swap2\n              pop\n                /* \"#utility.yul\":2536:2821   */\n              pop\n                /* \"#utility.yul\":2444:2821   */\n              swap3\n              swap2\n              pop\n              pop\n              jump\t// out\n                /* \"#utility.yul\":2827:3250   */\n            tag_31:\n                /* \"#utility.yul\":2968:2972   */\n              0x00\n                /* \"#utility.yul\":3006:3008   */\n              0x40\n                /* \"#utility.yul\":2995:3004   */\n              dup3\n                /* \"#utility.yul\":2991:3009   */\n              add\n                /* \"#utility.yul\":2983:3009   */\n              swap1\n              pop\n                /* \"#utility.yul\":3019:3090   */\n              tag_138\n                /* \"#utility.yul\":3087:3088   */\n              0x00\n                /* \"#utility.yul\":3076:3085   */\n              dup4\n                /* \"#utility.yul\":3072:3089   */\n              add\n                /* \"#utility.yul\":3063:3069   */\n              dup6\n                /* \"#utility.yul\":3019:3090   */\n              tag_64\n              jump\t// in\n            tag_138:\n                /* \"#utility.yul\":3137:3146   */\n              dup2\n                /* \"#utility.yul\":3131:3135   */\n              dup2\n                /* \"#utility.yul\":3127:3147   */\n              sub\n                /* \"#utility.yul\":3122:3124   */\n              0x20\n                /* \"#utility.yul\":3111:3120   */\n              dup4\n                /* \"#utility.yul\":3107:3125   */\n              add\n                /* \"#utility.yul\":3100:3148   */\n              mstore\n                /* \"#utility.yul\":3165:3243   */\n              tag_139\n                /* \"#utility.yul\":3238:3242   */\n              dup2\n                /* \"#utility.yul\":3229:3235   */\n              dup5\n                /* \"#utility.yul\":3165:3243   */\n              tag_74\n              jump\t// in\n            tag_139:\n                /* \"#utility.yul\":3157:3243   */\n              swap1\n              pop\n                /* \"#utility.yul\":2827:3250   */\n              swap4\n              swap3\n              pop\n              pop\n              pop\n              jump\t// out\n                /* \"#utility.yul\":3256:3373   */\n            tag_75:\n                /* \"#utility.yul\":3365:3366   */\n              0x00\n                /* \"#utility.yul\":3362:3363   */\n              dup1\n                /* \"#utility.yul\":3355:3367   */\n              revert\n                /* \"#utility.yul\":3379:3496   */\n            tag_76:\n                /* \"#utility.yul\":3488:3489   */\n              0x00\n                /* \"#utility.yul\":3485:3486   */\n              dup1\n                /* \"#utility.yul\":3478:3490   */\n              revert\n                /* \"#utility.yul\":3502:3682   */\n            tag_77:\n                /* \"#utility.yul\":3550:3627   */\n              0x4e487b7100000000000000000000000000000000000000000000000000000000\n                /* \"#utility.yul\":3547:3548   */\n              0x00\n                /* \"#utility.yul\":3540:3628   */\n              mstore\n                /* \"#utility.yul\":3647:3651   */\n              0x41\n                /* \"#utility.yul\":3644:3645   */\n              0x04\n                /* \"#utility.yul\":3637:3652   */\n              mstore\n                /* \"#utility.yul\":3671:3675   */\n              0x24\n                /* \"#utility.yul\":3668:3669   */\n              0x00\n                /* \"#utility.yul\":3661:3676   */\n              revert\n                /* \"#utility.yul\":3688:3969   */\n            tag_78:\n                /* \"#utility.yul\":3771:3798   */\n              tag_144\n                /* \"#utility.yul\":3793:3797   */\n              dup3\n                /* \"#utility.yul\":3771:3798   */\n              tag_73\n              jump\t// in\n            tag_144:\n                /* \"#utility.yul\":3763:3769   */\n              dup2\n                /* \"#utility.yul\":3759:3799   */\n              add\n                /* \"#utility.yul\":3901:3907   */\n              dup2\n                /* \"#utility.yul\":3889:3899   */\n              dup2\n                /* \"#utility.yul\":3886:3908   */\n              lt\n                /* \"#utility.yul\":3865:3883   */\n              0xffffffffffffffff\n                /* \"#utility.yul\":3853:3863   */\n              dup3\n                /* \"#utility.yul\":3850:3884   */\n              gt\n                /* \"#utility.yul\":3847:3909   */\n              or\n                /* \"#utility.yul\":3844:3932   */\n              iszero\n              tag_145\n              jumpi\n                /* \"#utility.yul\":3912:3930   */\n              tag_146\n              tag_77\n              jump\t// in\n            tag_146:\n                /* \"#utility.yul\":3844:3932   */\n            tag_145:\n                /* \"#utility.yul\":3952:3962   */\n              dup1\n                /* \"#utility.yul\":3948:3950   */\n              0x40\n                /* \"#utility.yul\":3941:3963   */\n              mstore\n                /* \"#utility.yul\":3731:3969   */\n              pop\n                /* \"#utility.yul\":3688:3969   */\n              pop\n              pop\n              jump\t// out\n                /* \"#utility.yul\":3975:4104   */\n            tag_79:\n                /* \"#utility.yul\":4009:4015   */\n              0x00\n                /* \"#utility.yul\":4036:4056   */\n              tag_148\n              tag_65\n              jump\t// in\n            tag_148:\n                /* \"#utility.yul\":4026:4056   */\n              swap1\n              pop\n                /* \"#utility.yul\":4065:4098   */\n              tag_149\n                /* \"#utility.yul\":4093:4097   */\n              dup3\n                /* \"#utility.yul\":4085:4091   */\n              dup3\n                /* \"#utility.yul\":4065:4098   */\n              tag_78\n              jump\t// in\n            tag_149:\n                /* \"#utility.yul\":3975:4104   */\n              swap2\n              swap1\n              pop\n              jump\t// out\n                /* \"#utility.yul\":4110:4418   */\n            tag_80:\n                /* \"#utility.yul\":4172:4176   */\n              0x00\n                /* \"#utility.yul\":4262:4280   */\n              0xffffffffffffffff\n                /* \"#utility.yul\":4254:4260   */\n              dup3\n                /* \"#utility.yul\":4251:4281   */\n              gt\n                /* \"#utility.yul\":4248:4304   */\n              iszero\n              tag_151\n              jumpi\n                /* \"#utility.yul\":4284:4302   */\n              tag_152\n              tag_77\n              jump\t// in\n            tag_152:\n                /* \"#utility.yul\":4248:4304   */\n            tag_151:\n                /* \"#utility.yul\":4322:4351   */\n              tag_153\n                /* \"#utility.yul\":4344:4350   */\n              dup3\n                /* \"#utility.yul\":4322:4351   */\n              tag_73\n              jump\t// in\n            tag_153:\n                /* \"#utility.yul\":4314:4351   */\n              swap1\n              pop\n                /* \"#utility.yul\":4406:4410   */\n              0x20\n                /* \"#utility.yul\":4400:4404   */\n              dup2\n                /* \"#utility.yul\":4396:4411   */\n              add\n                /* \"#utility.yul\":4388:4411   */\n              swap1\n              pop\n                /* \"#utility.yul\":4110:4418   */\n              swap2\n              swap1\n              pop\n              jump\t// out\n                /* \"#utility.yul\":4424:4570   */\n            tag_81:\n                /* \"#utility.yul\":4521:4527   */\n              dup3\n                /* \"#utility.yul\":4516:4519   */\n              dup2\n                /* \"#utility.yul\":4511:4514   */\n              dup4\n                /* \"#utility.yul\":4498:4528   */\n              calldatacopy\n                /* \"#utility.yul\":4562:4563   */\n              0x00\n                /* \"#utility.yul\":4553:4559   */\n              dup4\n                /* \"#utility.yul\":4548:4551   */\n              dup4\n                /* \"#utility.yul\":4544:4560   */\n              add\n                /* \"#utility.yul\":4537:4564   */\n              mstore\n                /* \"#utility.yul\":4424:4570   */\n              pop\n              pop\n              pop\n              jump\t// out\n                /* \"#utility.yul\":4576:5001   */\n            tag_82:\n                /* \"#utility.yul\":4654:4659   */\n              0x00\n                /* \"#utility.yul\":4679:4745   */\n              tag_156\n                /* \"#utility.yul\":4695:4744   */\n              tag_157\n                /* \"#utility.yul\":4737:4743   */\n              dup5\n                /* \"#utility.yul\":4695:4744   */\n              tag_80\n              jump\t// in\n            tag_157:\n                /* \"#utility.yul\":4679:4745   */\n              tag_79\n              jump\t// in\n            tag_156:\n                /* \"#utility.yul\":4670:4745   */\n              swap1\n              pop\n                /* \"#utility.yul\":4768:4774   */\n              dup3\n                /* \"#utility.yul\":4761:4766   */\n              dup2\n                /* \"#utility.yul\":4754:4775   */\n              mstore\n                /* \"#utility.yul\":4806:4810   */\n              0x20\n                /* \"#utility.yul\":4799:4804   */\n              dup2\n                /* \"#utility.yul\":4795:4811   */\n              add\n                /* \"#utility.yul\":4844:4847   */\n              dup5\n                /* \"#utility.yul\":4835:4841   */\n              dup5\n                /* \"#utility.yul\":4830:4833   */\n              dup5\n                /* \"#utility.yul\":4826:4842   */\n              add\n                /* \"#utility.yul\":4823:4848   */\n              gt\n                /* \"#utility.yul\":4820:4932   */\n              iszero\n              tag_158\n              jumpi\n                /* \"#utility.yul\":4851:4930   */\n              tag_159\n              tag_76\n              jump\t// in\n            tag_159:\n                /* \"#utility.yul\":4820:4932   */\n            tag_158:\n                /* \"#utility.yul\":4941:4995   */\n              tag_160\n                /* \"#utility.yul\":4988:4994   */\n              dup5\n                /* \"#utility.yul\":4983:4986   */\n              dup3\n                /* \"#utility.yul\":4978:4981   */\n              dup6\n                /* \"#utility.yul\":4941:4995   */\n              tag_81\n              jump\t// in\n            tag_160:\n                /* \"#utility.yul\":4660:5001   */\n              pop\n                /* \"#utility.yul\":4576:5001   */\n              swap4\n              swap3\n              pop\n              pop\n              pop\n              jump\t// out\n                /* \"#utility.yul\":5021:5361   */\n            tag_83:\n                /* \"#utility.yul\":5077:5082   */\n              0x00\n                /* \"#utility.yul\":5126:5129   */\n              dup3\n                /* \"#utility.yul\":5119:5123   */\n              0x1f\n                /* \"#utility.yul\":5111:5117   */\n              dup4\n                /* \"#utility.yul\":5107:5124   */\n              add\n                /* \"#utility.yul\":5103:5130   */\n              slt\n                /* \"#utility.yul\":5093:5215   */\n              tag_162\n              jumpi\n                /* \"#utility.yul\":5134:5213   */\n              tag_163\n              tag_75\n              jump\t// in\n            tag_163:\n                /* \"#utility.yul\":5093:5215   */\n            tag_162:\n                /* \"#utility.yul\":5251:5257   */\n              dup2\n                /* \"#utility.yul\":5238:5258   */\n              calldataload\n                /* \"#utility.yul\":5276:5355   */\n              tag_164\n                /* \"#utility.yul\":5351:5354   */\n              dup5\n                /* \"#utility.yul\":5343:5349   */\n              dup3\n                /* \"#utility.yul\":5336:5340   */\n              0x20\n                /* \"#utility.yul\":5328:5334   */\n              dup7\n                /* \"#utility.yul\":5324:5341   */\n              add\n                /* \"#utility.yul\":5276:5355   */\n              tag_82\n              jump\t// in\n            tag_164:\n                /* \"#utility.yul\":5267:5355   */\n              swap2\n              pop\n                /* \"#utility.yul\":5083:5361   */\n              pop\n                /* \"#utility.yul\":5021:5361   */\n              swap3\n              swap2\n              pop\n              pop\n              jump\t// out\n                /* \"#utility.yul\":5367:6021   */\n            tag_37:\n                /* \"#utility.yul\":5445:5451   */\n              0x00\n                /* \"#utility.yul\":5453:5459   */\n              dup1\n                /* \"#utility.yul\":5502:5504   */\n              0x40\n                /* \"#utility.yul\":5490:5499   */\n              dup4\n                /* \"#utility.yul\":5481:5488   */\n              dup6\n                /* \"#utility.yul\":5477:5500   */\n              sub\n                /* \"#utility.yul\":5473:5505   */\n              slt\n                /* \"#utility.yul\":5470:5589   */\n              iszero\n              tag_166\n              jumpi\n                /* \"#utility.yul\":5508:5587   */\n              tag_167\n              tag_66\n              jump\t// in\n            tag_167:\n                /* \"#utility.yul\":5470:5589   */\n            tag_166:\n                /* \"#utility.yul\":5656:5657   */\n              0x00\n                /* \"#utility.yul\":5645:5654   */\n              dup4\n                /* \"#utility.yul\":5641:5658   */\n              add\n                /* \"#utility.yul\":5628:5659   */\n              calldataload\n                /* \"#utility.yul\":5686:5704   */\n              0xffffffffffffffff\n                /* \"#utility.yul\":5678:5684   */\n              dup2\n                /* \"#utility.yul\":5675:5705   */\n              gt\n                /* \"#utility.yul\":5672:5789   */\n              iszero\n              tag_168\n              jumpi\n                /* \"#utility.yul\":5708:5787   */\n              tag_169\n              tag_67\n              jump\t// in\n            tag_169:\n                /* \"#utility.yul\":5672:5789   */\n            tag_168:\n                /* \"#utility.yul\":5813:5876   */\n              tag_170\n                /* \"#utility.yul\":5868:5875   */\n              dup6\n                /* \"#utility.yul\":5859:5865   */\n              dup3\n                /* \"#utility.yul\":5848:5857   */\n              dup7\n                /* \"#utility.yul\":5844:5866   */\n              add\n                /* \"#utility.yul\":5813:5876   */\n              tag_83\n              jump\t// in\n            tag_170:\n                /* \"#utility.yul\":5803:5876   */\n              swap3\n              pop\n                /* \"#utility.yul\":5599:5886   */\n              pop\n                /* \"#utility.yul\":5925:5927   */\n              0x20\n                /* \"#utility.yul\":5951:6004   */\n              tag_171\n                /* \"#utility.yul\":5996:6003   */\n              dup6\n                /* \"#utility.yul\":5987:5993   */\n              dup3\n                /* \"#utility.yul\":5976:5985   */\n              dup7\n                /* \"#utility.yul\":5972:5994   */\n              add\n                /* \"#utility.yul\":5951:6004   */\n              tag_69\n              jump\t// in\n            tag_171:\n                /* \"#utility.yul\":5941:6004   */\n              swap2\n              pop\n                /* \"#utility.yul\":5896:6014   */\n              pop\n                /* \"#utility.yul\":5367:6021   */\n              swap3\n              pop\n              swap3\n              swap1\n              pop\n              jump\t// out\n                /* \"#utility.yul\":6027:6536   */\n            tag_41:\n                /* \"#utility.yul\":6096:6102   */\n              0x00\n                /* \"#utility.yul\":6145:6147   */\n              0x20\n                /* \"#utility.yul\":6133:6142   */\n              dup3\n                /* \"#utility.yul\":6124:6131   */\n              dup5\n                /* \"#utility.yul\":6120:6143   */\n              sub\n                /* \"#utility.yul\":6116:6148   */\n              slt\n                /* \"#utility.yul\":6113:6232   */\n              iszero\n              tag_173\n              jumpi\n                /* \"#utility.yul\":6151:6230   */\n              tag_174\n              tag_66\n              jump\t// in\n            tag_174:\n                /* \"#utility.yul\":6113:6232   */\n            tag_173:\n                /* \"#utility.yul\":6299:6300   */\n              0x00\n                /* \"#utility.yul\":6288:6297   */\n              dup3\n                /* \"#utility.yul\":6284:6301   */\n              add\n                /* \"#utility.yul\":6271:6302   */\n              calldataload\n                /* \"#utility.yul\":6329:6347   */\n              0xffffffffffffffff\n                /* \"#utility.yul\":6321:6327   */\n              dup2\n                /* \"#utility.yul\":6318:6348   */\n              gt\n                /* \"#utility.yul\":6315:6432   */\n              iszero\n              tag_175\n              jumpi\n                /* \"#utility.yul\":6351:6430   */\n              tag_176\n              tag_67\n              jump\t// in\n            tag_176:\n                /* \"#utility.yul\":6315:6432   */\n            tag_175:\n                /* \"#utility.yul\":6456:6519   */\n              tag_177\n                /* \"#utility.yul\":6511:6518   */\n              dup5\n                /* \"#utility.yul\":6502:6508   */\n              dup3\n                /* \"#utility.yul\":6491:6500   */\n              dup6\n                /* \"#utility.yul\":6487:6509   */\n              add\n                /* \"#utility.yul\":6456:6519   */\n              tag_83\n              jump\t// in\n            tag_177:\n                /* \"#utility.yul\":6446:6519   */\n              swap2\n              pop\n                /* \"#utility.yul\":6242:6529   */\n              pop\n                /* \"#utility.yul\":6027:6536   */\n              swap3\n              swap2\n              pop\n              pop\n              jump\t// out\n                /* \"#utility.yul\":6542:6722   */\n            tag_84:\n                /* \"#utility.yul\":6590:6667   */\n              0x4e487b7100000000000000000000000000000000000000000000000000000000\n                /* \"#utility.yul\":6587:6588   */\n              0x00\n                /* \"#utility.yul\":6580:6668   */\n              mstore\n                /* \"#utility.yul\":6687:6691   */\n              0x22\n                /* \"#utility.yul\":6684:6685   */\n              0x04\n                /* \"#utility.yul\":6677:6692   */\n              mstore\n                /* \"#utility.yul\":6711:6715   */\n              0x24\n                /* \"#utility.yul\":6708:6709   */\n              0x00\n                /* \"#utility.yul\":6701:6716   */\n              revert\n                /* \"#utility.yul\":6728:7048   */\n            tag_49:\n                /* \"#utility.yul\":6772:6778   */\n              0x00\n                /* \"#utility.yul\":6809:6810   */\n              0x02\n                /* \"#utility.yul\":6803:6807   */\n              dup3\n                /* \"#utility.yul\":6799:6811   */\n              div\n                /* \"#utility.yul\":6789:6811   */\n              swap1\n              pop\n                /* \"#utility.yul\":6856:6857   */\n              0x01\n                /* \"#utility.yul\":6850:6854   */\n              dup3\n                /* \"#utility.yul\":6846:6858   */\n              and\n                /* \"#utility.yul\":6877:6895   */\n              dup1\n                /* \"#utility.yul\":6867:6948   */\n              tag_180\n              jumpi\n                /* \"#utility.yul\":6933:6937   */\n              0x7f\n                /* \"#utility.yul\":6925:6931   */\n              dup3\n                /* \"#utility.yul\":6921:6938   */\n              and\n                /* \"#utility.yul\":6911:6938   */\n              swap2\n              pop\n                /* \"#utility.yul\":6867:6948   */\n            tag_180:\n                /* \"#utility.yul\":6995:6997   */\n              0x20\n                /* \"#utility.yul\":6987:6993   */\n              dup3\n                /* \"#utility.yul\":6984:6998   */\n              lt\n                /* \"#utility.yul\":6964:6982   */\n              dup2\n                /* \"#utility.yul\":6961:6999   */\n              sub\n                /* \"#utility.yul\":6958:7042   */\n              tag_181\n              jumpi\n                /* \"#utility.yul\":7014:7032   */\n              tag_182\n              tag_84\n              jump\t// in\n            tag_182:\n                /* \"#utility.yul\":6958:7042   */\n            tag_181:\n                /* \"#utility.yul\":6779:7048   */\n              pop\n                /* \"#utility.yul\":6728:7048   */\n              swap2\n              swap1\n              pop\n              jump\t// out\n                /* \"#utility.yul\":7054:7195   */\n            tag_85:\n                /* \"#utility.yul\":7103:7107   */\n              0x00\n                /* \"#utility.yul\":7126:7129   */\n              dup2\n                /* \"#utility.yul\":7118:7129   */\n              swap1\n              pop\n                /* \"#utility.yul\":7149:7152   */\n              dup2\n                /* \"#utility.yul\":7146:7147   */\n              0x00\n                /* \"#utility.yul\":7139:7153   */\n              mstore\n                /* \"#utility.yul\":7183:7187   */\n              0x20\n                /* \"#utility.yul\":7180:7181   */\n              0x00\n                /* \"#utility.yul\":7170:7188   */\n              keccak256\n                /* \"#utility.yul\":7162:7188   */\n              swap1\n              pop\n                /* \"#utility.yul\":7054:7195   */\n              swap2\n              swap1\n              pop\n              jump\t// out\n                /* \"#utility.yul\":7201:7294   */\n            tag_86:\n                /* \"#utility.yul\":7238:7244   */\n              0x00\n                /* \"#utility.yul\":7285:7287   */\n              0x20\n                /* \"#utility.yul\":7280:7282   */\n              0x1f\n                /* \"#utility.yul\":7273:7278   */\n              dup4\n                /* \"#utility.yul\":7269:7283   */\n              add\n                /* \"#utility.yul\":7265:7288   */\n              div\n                /* \"#utility.yul\":7255:7288   */\n              swap1\n              pop\n                /* \"#utility.yul\":7201:7294   */\n              swap2\n              swap1\n              pop\n              jump\t// out\n                /* \"#utility.yul\":7300:7407   */\n            tag_87:\n                /* \"#utility.yul\":7344:7352   */\n              0x00\n                /* \"#utility.yul\":7394:7399   */\n              dup3\n                /* \"#utility.yul\":7388:7392   */\n              dup3\n                /* \"#utility.yul\":7384:7400   */\n              shl\n                /* \"#utility.yul\":7363:7400   */\n              swap1\n              pop\n                /* \"#utility.yul\":7300:7407   */\n              swap3\n              swap2\n              pop\n              pop\n              jump\t// out\n                /* \"#utility.yul\":7413:7806   */\n            tag_88:\n                /* \"#utility.yul\":7482:7488   */\n              0x00\n                /* \"#utility.yul\":7532:7533   */\n              0x08\n                /* \"#utility.yul\":7520:7530   */\n              dup4\n                /* \"#utility.yul\":7516:7534   */\n              mul\n                /* \"#utility.yul\":7555:7652   */\n              tag_187\n                /* \"#utility.yul\":7585:7651   */\n              0xffffffffffffffffffffffffffffffffffffffffffffffffffffffffffffffff\n                /* \"#utility.yul\":7574:7583   */\n              dup3\n                /* \"#utility.yul\":7555:7652   */\n              tag_87\n              jump\t// in\n            tag_187:\n                /* \"#utility.yul\":7673:7712   */\n              tag_188\n                /* \"#utility.yul\":7703:7711   */\n              dup7\n                /* \"#utility.yul\":7692:7701   */\n              dup4\n                /* \"#utility.yul\":7673:7712   */\n              tag_87\n              jump\t// in\n            tag_188:\n                /* \"#utility.yul\":7661:7712   */\n              swap6\n              pop\n                /* \"#utility.yul\":7745:7749   */\n              dup1\n                /* \"#utility.yul\":7741:7750   */\n              not\n                /* \"#utility.yul\":7734:7739   */\n              dup5\n                /* \"#utility.yul\":7730:7751   */\n              and\n                /* \"#utility.yul\":7721:7751   */\n              swap4\n              pop\n                /* \"#utility.yul\":7794:7798   */\n              dup1\n                /* \"#utility.yul\":7784:7792   */\n              dup7\n                /* \"#utility.yul\":7780:7799   */\n              and\n                /* \"#utility.yul\":7773:7778   */\n              dup5\n                /* \"#utility.yul\":7770:7800   */\n              or\n                /* \"#utility.yul\":7760:7800   */\n              swap3\n              pop\n                /* \"#utility.yul\":7489:7806   */\n              pop\n              pop\n                /* \"#utility.yul\":7413:7806   */\n              swap4\n              swap3\n              pop\n              pop\n              pop\n              jump\t// out\n                /* \"#utility.yul\":7812:7872   */\n            tag_89:\n                /* \"#utility.yul\":7840:7843   */\n              0x00\n                /* \"#utility.yul\":7861:7866   */\n              dup2\n                /* \"#utility.yul\":7854:7866   */\n              swap1\n              pop\n                /* \"#utility.yul\":7812:7872   */\n              swap2\n              swap1\n              pop\n              jump\t// out\n                /* \"#utility.yul\":7878:8020   */\n            tag_90:\n                /* \"#utility.yul\":7928:7937   */\n              0x00\n                /* \"#utility.yul\":7961:8014   */\n              tag_191\n                /* \"#utility.yul\":7979:8013   */\n              tag_192\n                /* \"#utility.yul\":7988:8012   */\n              tag_193\n                /* \"#utility.yul\":8006:8011   */\n              dup5\n                /* \"#utility.yul\":7988:8012   */\n              tag_63\n              jump\t// in\n            tag_193:\n                /* \"#utility.yul\":7979:8013   */\n              tag_89\n              jump\t// in\n            tag_192:\n                /* \"#utility.yul\":7961:8014   */\n              tag_63\n              jump\t// in\n            tag_191:\n                /* \"#utility.yul\":7948:8014   */\n              swap1\n              pop\n                /* \"#utility.yul\":7878:8020   */\n              swap2\n              swap1\n              pop\n              jump\t// out\n                /* \"#utility.yul\":8026:8101   */\n            tag_91:\n                /* \"#utility.yul\":8069:8072   */\n              0x00\n                /* \"#utility.yul\":8090:8095   */\n              dup2\n                /* \"#utility.yul\":8083:8095   */\n              swap1\n              pop\n                /* \"#utility.yul\":8026:8101   */\n              swap2\n              swap1\n              pop\n              jump\t// out\n                /* \"#utility.yul\":8107:8376   */\n            tag_92:\n                /* \"#utility.yul\":8217:8256   */\n              tag_196\n                /* \"#utility.yul\":8248:8255   */\n              dup4\n                /* \"#utility.yul\":8217:8256   */\n              tag_90\n              jump\t// in\n            tag_196:\n                /* \"#utility.yul\":8278:8369   */\n              tag_197\n                /* \"#utility.yul\":8327:8368   */\n              tag_198\n                /* \"#utility.yul\":8351:8367   */\n              dup3\n                /* \"#utility.yul\":8327:8368   */\n              tag_91\n              jump\t// in\n            tag_198:\n                /* \"#utility.yul\":8319:8325   */\n              dup5\n                /* \"#utility.yul\":8312:8316   */\n              dup5\n                /* \"#utility.yul\":8306:8317   */\n              sload\n                /* \"#utility.yul\":8278:8369   */\n              tag_88\n              jump\t// in\n            tag_197:\n                /* \"#utility.yul\":8272:8276   */\n              dup3\n                /* \"#utility.yul\":8265:8370   */\n              sstore\n                /* \"#utility.yul\":8183:8376   */\n              pop\n                /* \"#utility.yul\":8107:8376   */\n              pop\n              pop\n              pop\n              jump\t// out\n                /* \"#utility.yul\":8382:8455   */\n            tag_93:\n                /* \"#utility.yul\":8427:8430   */\n              0x00\n                /* \"#utility.yul\":8382:8455   */\n              swap1\n              jump\t// out\n                /* \"#utility.yul\":8461:8650   */\n            tag_94:\n                /* \"#utility.yul\":8538:8570   */\n              tag_201\n              tag_93\n              jump\t// in\n            tag_201:\n                /* \"#utility.yul\":8579:8644   */\n              tag_202\n                /* \"#utility.yul\":8637:8643   */\n              dup2\n                /* \"#utility.yul\":8629:8635   */\n              dup5\n                /* \"#utility.yul\":8623:8627   */\n              dup5\n                /* \"#utility.yul\":8579:8644   */\n              tag_92\n              jump\t// in\n            tag_202:\n                /* \"#utility.yul\":8514:8650   */\n              pop\n                /* \"#utility.yul\":8461:8650   */\n              pop\n              pop\n              jump\t// out\n                /* \"#utility.yul\":8656:8842   */\n            tag_95:\n                /* \"#utility.yul\":8716:8836   */\n            tag_204:\n                /* \"#utility.yul\":8733:8736   */\n              dup2\n                /* \"#utility.yul\":8726:8731   */\n              dup2\n                /* \"#utility.yul\":8723:8737   */\n              lt\n                /* \"#utility.yul\":8716:8836   */\n              iszero\n              tag_206\n              jumpi\n                /* \"#utility.yul\":8787:8826   */\n              tag_207\n                /* \"#utility.yul\":8824:8825   */\n              0x00\n                /* \"#utility.yul\":8817:8822   */\n              dup3\n                /* \"#utility.yul\":8787:8826   */\n              tag_94\n              jump\t// in\n            tag_207:\n                /* \"#utility.yul\":8760:8761   */\n              0x01\n                /* \"#utility.yul\":8753:8758   */\n              dup2\n                /* \"#utility.yul\":8749:8762   */\n              add\n                /* \"#utility.yul\":8740:8762   */\n              swap1\n              pop\n                /* \"#utility.yul\":8716:8836   */\n              jump(tag_204)\n            tag_206:\n                /* \"#utility.yul\":8656:8842   */\n              pop\n              pop\n              jump\t// out\n                /* \"#utility.yul\":8848:9391   */\n            tag_96:\n                /* \"#utility.yul\":8949:8951   */\n              0x1f\n                /* \"#utility.yul\":8944:8947   */\n              dup3\n                /* \"#utility.yul\":8941:8952   */\n              gt\n                /* \"#utility.yul\":8938:9384   */\n              iszero\n              tag_209\n              jumpi\n                /* \"#utility.yul\":8983:9021   */\n              tag_210\n                /* \"#utility.yul\":9015:9020   */\n              dup2\n                /* \"#utility.yul\":8983:9021   */\n              tag_85\n              jump\t// in\n            tag_210:\n                /* \"#utility.yul\":9067:9096   */\n              tag_211\n                /* \"#utility.yul\":9085:9095   */\n              dup5\n                /* \"#utility.yul\":9067:9096   */\n              tag_86\n              jump\t// in\n            tag_211:\n                /* \"#utility.yul\":9057:9065   */\n              dup2\n                /* \"#utility.yul\":9053:9097   */\n              add\n                /* \"#utility.yul\":9250:9252   */\n              0x20\n                /* \"#utility.yul\":9238:9248   */\n              dup6\n                /* \"#utility.yul\":9235:9253   */\n              lt\n                /* \"#utility.yul\":9232:9281   */\n              iszero\n              tag_212\n              jumpi\n                /* \"#utility.yul\":9271:9279   */\n              dup2\n                /* \"#utility.yul\":9256:9279   */\n              swap1\n              pop\n                /* \"#utility.yul\":9232:9281   */\n            tag_212:\n                /* \"#utility.yul\":9294:9374   */\n              tag_213\n                /* \"#utility.yul\":9350:9372   */\n              tag_214\n                /* \"#utility.yul\":9368:9371   */\n              dup6\n                /* \"#utility.yul\":9350:9372   */\n              tag_86\n              jump\t// in\n            tag_214:\n                /* \"#utility.yul\":9340:9348   */\n              dup4\n                /* \"#utility.yul\":9336:9373   */\n              add\n                /* \"#utility.yul\":9323:9334   */\n              dup3\n                /* \"#utility.yul\":9294:9374   */\n              tag_95\n              jump\t// in\n            tag_213:\n                /* \"#utility.yul\":8953:9384   */\n              pop\n              pop\n                /* \"#utility.yul\":8938:9384   */\n            tag_209:\n                /* \"#utility.yul\":8848:9391   */\n              pop\n              pop\n              pop\n              jump\t// out\n                /* \"#utility.yul\":9397:9514   */\n            tag_97:\n                /* \"#utility.yul\":9451:9459   */\n              0x00\n                /* \"#utility.yul\":9501:9506   */\n              dup3\n                /* \"#utility.yul\":9495:9499   */\n              dup3\n                /* \"#utility.yul\":9491:9507   */\n              shr\n                /* \"#utility.yul\":9470:9507   */\n              swap1\n              pop\n                /* \"#utility.yul\":9397:9514   */\n              swap3\n              swap2\n              pop\n              pop\n              jump\t// out\n                /* \"#utility.yul\":9520:9689   */\n            tag_98:\n                /* \"#utility.yul\":9564:9570   */\n              0x00\n                /* \"#utility.yul\":9597:9648   */\n              tag_217\n                /* \"#utility.yul\":9645:9646   */\n              0x00\n                /* \"#utility.yul\":9641:9647   */\n              not\n                /* \"#utility.yul\":9633:9638   */\n              dup5\n                /* \"#utility.yul\":9630:9631   */\n              0x08\n                /* \"#utility.yul\":9626:9639   */\n              mul\n                /* \"#utility.yul\":9597:9648   */\n              tag_97\n              jump\t// in\n            tag_217:\n                /* \"#utility.yul\":9593:9649   */\n              not\n                /* \"#utility.yul\":9678:9682   */\n              dup1\n                /* \"#utility.yul\":9672:9676   */\n              dup4\n                /* \"#utility.yul\":9668:9683   */\n              and\n                /* \"#utility.yul\":9658:9683   */\n              swap2\n              pop\n                /* \"#utility.yul\":9571:9689   */\n              pop\n                /* \"#utility.yul\":9520:9689   */\n              swap3\n              swap2\n              pop\n              pop\n              jump\t// out\n                /* \"#utility.yul\":9694:9989   */\n            tag_99:\n                /* \"#utility.yul\":9770:9774   */\n              0x00\n                /* \"#utility.yul\":9916:9945   */\n              tag_219\n                /* \"#utility.yul\":9941:9944   */\n              dup4\n                /* \"#utility.yul\":9935:9939   */\n              dup4\n                /* \"#utility.yul\":9916:9945   */\n              tag_98\n              jump\t// in\n            tag_219:\n                /* \"#utility.yul\":9908:9945   */\n              swap2\n              pop\n                /* \"#utility.yul\":9978:9981   */\n              dup3\n                /* \"#utility.yul\":9975:9976   */\n              0x02\n                /* \"#utility.yul\":9971:9982   */\n              mul\n                /* \"#utility.yul\":9965:9969   */\n              dup3\n                /* \"#utility.yul\":9962:9983   */\n              or\n                /* \"#utility.yul\":9954:9983   */\n              swap1\n              pop\n                /* \"#utility.yul\":9694:9989   */\n              swap3\n              swap2\n              pop\n              pop\n              jump\t// out\n                /* \"#utility.yul\":9994:11389   */\n            tag_58:\n                /* \"#utility.yul\":10111:10148   */\n              tag_221\n                /* \"#utility.yul\":10144:10147   */\n              dup3\n                /* \"#utility.yul\":10111:10148   */\n              tag_70\n              jump\t// in\n            tag_221:\n                /* \"#utility.yul\":10213:10231   */\n              0xffffffffffffffff\n                /* \"#utility.yul\":10205:10211   */\n              dup2\n                /* \"#utility.yul\":10202:10232   */\n              gt\n                /* \"#utility.yul\":10199:10255   */\n              iszero\n              tag_222\n              jumpi\n                /* \"#utility.yul\":10235:10253   */\n              tag_223\n              tag_77\n              jump\t// in\n            tag_223:\n                /* \"#utility.yul\":10199:10255   */\n            tag_222:\n                /* \"#utility.yul\":10279:10317   */\n              tag_224\n                /* \"#utility.yul\":10311:10315   */\n              dup3\n                /* \"#utility.yul\":10305:10316   */\n              sload\n                /* \"#utility.yul\":10279:10317   */\n              tag_49\n              jump\t// in\n            tag_224:\n                /* \"#utility.yul\":10364:10431   */\n              tag_225\n                /* \"#utility.yul\":10424:10430   */\n              dup3\n                /* \"#utility.yul\":10416:10422   */\n              dup3\n                /* \"#utility.yul\":10410:10414   */\n              dup6\n                /* \"#utility.yul\":10364:10431   */\n              tag_96\n              jump\t// in\n            tag_225:\n                /* \"#utility.yul\":10458:10459   */\n              0x00\n                /* \"#utility.yul\":10482:10486   */\n              0x20\n                /* \"#utility.yul\":10469:10486   */\n              swap1\n              pop\n                /* \"#utility.yul\":10514:10516   */\n              0x1f\n                /* \"#utility.yul\":10506:10512   */\n              dup4\n                /* \"#utility.yul\":10503:10517   */\n              gt\n                /* \"#utility.yul\":10531:10532   */\n              0x01\n                /* \"#utility.yul\":10526:11144   */\n              dup2\n              eq\n              tag_227\n              jumpi\n                /* \"#utility.yul\":11188:11189   */\n              0x00\n                /* \"#utility.yul\":11205:11211   */\n              dup5\n                /* \"#utility.yul\":11202:11279   */\n              iszero\n              tag_228\n              jumpi\n                /* \"#utility.yul\":11254:11263   */\n              dup3\n                /* \"#utility.yul\":11249:11252   */\n              dup8\n                /* \"#utility.yul\":11245:11264   */\n              add\n                /* \"#utility.yul\":11239:11265   */\n              mload\n                /* \"#utility.yul\":11230:11265   */\n              swap1\n              pop\n                /* \"#utility.yul\":11202:11279   */\n            tag_228:\n                /* \"#utility.yul\":11305:11372   */\n              tag_229\n                /* \"#utility.yul\":11365:11371   */\n              dup6\n                /* \"#utility.yul\":11358:11363   */\n              dup3\n                /* \"#utility.yul\":11305:11372   */\n              tag_99\n              jump\t// in\n            tag_229:\n                /* \"#utility.yul\":11299:11303   */\n              dup7\n                /* \"#utility.yul\":11292:11373   */\n              sstore\n                /* \"#utility.yul\":11161:11383   */\n              pop\n                /* \"#utility.yul\":10496:11383   */\n              jump(tag_226)\n                /* \"#utility.yul\":10526:11144   */\n            tag_227:\n                /* \"#utility.yul\":10578:10582   */\n              0x1f\n                /* \"#utility.yul\":10574:10583   */\n              not\n                /* \"#utility.yul\":10566:10572   */\n              dup5\n                /* \"#utility.yul\":10562:10584   */\n              and\n                /* \"#utility.yul\":10612:10649   */\n              tag_230\n                /* \"#utility.yul\":10644:10648   */\n              dup7\n                /* \"#utility.yul\":10612:10649   */\n              tag_85\n              jump\t// in\n            tag_230:\n                /* \"#utility.yul\":10671:10672   */\n              0x00\n                /* \"#utility.yul\":10685:10893   */\n            tag_231:\n                /* \"#utility.yul\":10699:10706   */\n              dup3\n                /* \"#utility.yul\":10696:10697   */\n              dup2\n                /* \"#utility.yul\":10693:10707   */\n              lt\n                /* \"#utility.yul\":10685:10893   */\n              iszero\n              tag_233\n              jumpi\n                /* \"#utility.yul\":10778:10787   */\n              dup5\n                /* \"#utility.yul\":10773:10776   */\n              dup10\n                /* \"#utility.yul\":10769:10788   */\n              add\n                /* \"#utility.yul\":10763:10789   */\n              mload\n                /* \"#utility.yul\":10755:10761   */\n              dup3\n                /* \"#utility.yul\":10748:10790   */\n              sstore\n                /* \"#utility.yul\":10829:10830   */\n              0x01\n                /* \"#utility.yul\":10821:10827   */\n              dup3\n                /* \"#utility.yul\":10817:10831   */\n              add\n                /* \"#utility.yul\":10807:10831   */\n              swap2\n              pop\n                /* \"#utility.yul\":10876:10878   */\n              0x20\n                /* \"#utility.yul\":10865:10874   */\n              dup6\n                /* \"#utility.yul\":10861:10879   */\n              add\n                /* \"#utility.yul\":10848:10879   */\n              swap5\n              pop\n                /* \"#utility.yul\":10722:10726   */\n              0x20\n                /* \"#utility.yul\":10719:10720   */\n              dup2\n                /* \"#utility.yul\":10715:10727   */\n              add\n                /* \"#utility.yul\":10710:10727   */\n              swap1\n              pop\n                /* \"#utility.yul\":10685:10893   */\n              jump(tag_231)\n            tag_233:\n                /* \"#utility.yul\":10921:10927   */\n              dup7\n                /* \"#utility.yul\":10912:10919   */\n              dup4\n                /* \"#utility.yul\":10909:10928   */\n              lt\n                /* \"#utility.yul\":10906:11085   */\n              iszero\n              tag_234\n              jumpi\n                /* \"#utility.yul\":10979:10988   */\n              dup5\n                /* \"#utility.yul\":10974:10977   */\n              dup10\n                /* \"#utility.yul\":10970:10989   */\n              add\n                /* \"#utility.yul\":10964:10990   */\n              mload\n                /* \"#utility.yul\":11022:11070   */\n              tag_235\n                /* \"#utility.yul\":11064:11068   */\n              0x1f\n                /* \"#utility.yul\":11056:11062   */\n              dup10\n                /* \"#utility.yul\":11052:11069   */\n              and\n                /* \"#utility.yul\":11041:11050   */\n              dup3\n                /* \"#utility.yul\":11022:11070   */\n              tag_98\n              jump\t// in\n            tag_235:\n                /* \"#utility.yul\":11014:11020   */\n              dup4\n                /* \"#utility.yul\":11007:11071   */\n              sstore\n                /* \"#utility.yul\":10929:11085   */\n              pop\n                /* \"#utility.yul\":10906:11085   */\n            tag_234:\n                /* \"#utility.yul\":11131:11132   */\n              0x01\n                /* \"#utility.yul\":11127:11128   */\n              0x02\n                /* \"#utility.yul\":11119:11125   */\n              dup9\n                /* \"#utility.yul\":11115:11129   */\n              mul\n                /* \"#utility.yul\":11111:11133   */\n              add\n                /* \"#utility.yul\":11105:11109   */\n              dup9\n                /* \"#utility.yul\":11098:11134   */\n              sstore\n                /* \"#utility.yul\":10533:11144   */\n              pop\n              pop\n              pop\n                /* \"#utility.yul\":10496:11383   */\n            tag_226:\n              pop\n                /* \"#utility.yul\":10086:11389   */\n              pop\n              pop\n              pop\n                /* \"#utility.yul\":9994:11389   */\n              pop\n              pop\n              jump\t// out\n                /* \"#utility.yul\":11395:11543   */\n            tag_100:\n                /* \"#utility.yul\":11497:11508   */\n              0x00\n                /* \"#utility.yul\":11534:11537   */\n              dup2\n                /* \"#utility.yul\":11519:11537   */\n              swap1\n              pop\n                /* \"#utility.yul\":11395:11543   */\n              swap3\n              swap2\n              pop\n              pop\n              jump\t// out\n                /* \"#utility.yul\":11549:11939   */\n            tag_101:\n                /* \"#utility.yul\":11655:11658   */\n              0x00\n                /* \"#utility.yul\":11683:11722   */\n              tag_238\n                /* \"#utility.yul\":11716:11721   */\n              dup3\n                /* \"#utility.yul\":11683:11722   */\n              tag_70\n              jump\t// in\n            tag_238:\n                /* \"#utility.yul\":11738:11827   */\n              tag_239\n                /* \"#utility.yul\":11820:11826   */\n              dup2\n                /* \"#utility.yul\":11815:11818   */\n              dup6\n                /* \"#utility.yul\":11738:11827   */\n              tag_100\n              jump\t// in\n            tag_239:\n                /* \"#utility.yul\":11731:11827   */\n              swap4\n              pop\n                /* \"#utility.yul\":11836:11901   */\n              tag_240\n                /* \"#utility.yul\":11894:11900   */\n              dup2\n                /* \"#utility.yul\":11889:11892   */\n              dup6\n                /* \"#utility.yul\":11882:11886   */\n              0x20\n                /* \"#utility.yul\":11875:11880   */\n              dup7\n                /* \"#utility.yul\":11871:11887   */\n              add\n                /* \"#utility.yul\":11836:11901   */\n              tag_72\n              jump\t// in\n            tag_240:\n                /* \"#utility.yul\":11926:11932   */\n              dup1\n                /* \"#utility.yul\":11921:11924   */\n              dup5\n                /* \"#utility.yul\":11917:11933   */\n              add\n                /* \"#utility.yul\":11910:11933   */\n              swap2\n              pop\n                /* \"#utility.yul\":11659:11939   */\n              pop\n                /* \"#utility.yul\":11549:11939   */\n              swap3\n              swap2\n              pop\n              pop\n              jump\t// out\n                /* \"#utility.yul\":11945:12220   */\n            tag_60:\n                /* \"#utility.yul\":12077:12080   */\n              0x00\n                /* \"#utility.yul\":12099:12194   */\n              tag_242\n                /* \"#utility.yul\":12190:12193   */\n              dup3\n                /* \"#utility.yul\":12181:12187   */\n              dup5\n                /* \"#utility.yul\":12099:12194   */\n              tag_101\n              jump\t// in\n            tag_242:\n                /* \"#utility.yul\":12092:12194   */\n              swap2\n              pop\n                /* \"#utility.yul\":12211:12214   */\n              dup2\n                /* \"#utility.yul\":12204:12214   */\n              swap1\n              pop\n                /* \"#utility.yul\":11945:12220   */\n              swap3\n              swap2\n              pop\n              pop\n              jump\t// out\n\n            auxdata: 0xa26469706673582212202236de0f508a95d0083ff0fc3a764a76a347506de15aca989c50bdadd02b0d8464736f6c63430008160033\n        }\n    }\n\n    auxdata: 0xa2646970667358221220e03f3bbd8e43b16ea856c5cedfe20842af9e2e77a3a3d2fbf97ed4d1a5c4ed0564736f6c63430008160033\n}\n",
				"bytecode": {
					"linkReferences": {},
					"object": "608060405234801561000f575f80fd5b50610c978061001d5f395ff3fe608060405234801561000f575f80fd5b5060043610610034575f3560e01c80636be0d6bf146100385780639fa05b2814610056575b5f80fd5b610040610060565b60405161004d9190610170565b60405180910390f35b61005e610083565b005b5f8054906101000a900473ffffffffffffffffffffffffffffffffffffffff1681565b60405161008f906100e9565b604051809103905ff0801580156100a8573d5f803e3d5ffd5b505f806101000a81548173ffffffffffffffffffffffffffffffffffffffff021916908373ffffffffffffffffffffffffffffffffffffffff160217905550565b610ad88061018a83390190565b5f73ffffffffffffffffffffffffffffffffffffffff82169050919050565b5f819050919050565b5f61013861013361012e846100f6565b610115565b6100f6565b9050919050565b5f6101498261011e565b9050919050565b5f61015a8261013f565b9050919050565b61016a81610150565b82525050565b5f6020820190506101835f830184610161565b9291505056fe608060405260015f806101000a81548160ff0219169083151502179055507f74657374000000000000000000000000000000000000000000000000000000005f60016101000a81548163ffffffff021916908360e01c02179055505f6001555f80148061006c5750600180145b60035f6101000a81548160ff021916908315150217905550600160055f6101000a81548160ff021916908360028111156100a9576100a86100bf565b5b02179055503480156100b9575f80fd5b506100ec565b7f4e487b71000000000000000000000000000000000000000000000000000000005f52602160045260245ffd5b6109df806100f95f395ff3fe608060405234801561000f575f80fd5b5060043610610086575f3560e01c80635ec0e9c9116100595780635ec0e9c91461010257806369404ebd146101335780638f1d42261461014f57806396e567f41461016b57610086565b80630dbe671f1461008a5780630e4c2805146100a85780632e64cec1146100c6578063471f7cdf146100e4575b5f80fd5b61009261019b565b60405161009f919061035b565b60405180910390f35b6100b06101ad565b6040516100bd919061035b565b60405180910390f35b6100ce6101c2565b6040516100db919061038c565b60405180910390f35b6100ec6101cb565b6040516100f9919061038c565b60405180910390f35b61011c600480360381019061011791906103e0565b6101d1565b60405161012a929190610495565b60405180910390f35b61014d600480360381019061014891906103e0565b610286565b005b610169600480360381019061016491906105ef565b610290565b005b61018560048036038101906101809190610649565b610314565b604051610192919061038c565b60405180910390f35b60035f9054906101000a900460ff1681565b5f60035f9054906101000a900460ff16905090565b5f600154905090565b60015481565b600481815481106101e0575f80fd5b905f5260205f2090600202015f91509050805f015490806001018054610205906106bd565b80601f0160208091040260200160405190810160405280929190818152602001828054610231906106bd565b801561027c5780601f106102535761010080835404028352916020019161027c565b820191905f5260205f20905b81548152906001019060200180831161025f57829003601f168201915b5050505050905082565b8060018190555050565b6004604051806040016040528083815260200184815250908060018154018082558091505060019003905f5260205f2090600202015f909190919091505f820151815f015560208201518160010190816102ea919061088a565b505050806006836040516102fe9190610993565b9081526020016040518091039020819055505050565b6006818051602081018201805184825260208301602085012081835280955050505050505f915090505481565b5f8115159050919050565b61035581610341565b82525050565b5f60208201905061036e5f83018461034c565b92915050565b5f819050919050565b61038681610374565b82525050565b5f60208201905061039f5f83018461037d565b92915050565b5f604051905090565b5f80fd5b5f80fd5b6103bf81610374565b81146103c9575f80fd5b50565b5f813590506103da816103b6565b92915050565b5f602082840312156103f5576103f46103ae565b5b5f610402848285016103cc565b91505092915050565b5f81519050919050565b5f82825260208201905092915050565b5f5b83811015610442578082015181840152602081019050610427565b5f8484015250505050565b5f601f19601f8301169050919050565b5f6104678261040b565b6104718185610415565b9350610481818560208601610425565b61048a8161044d565b840191505092915050565b5f6040820190506104a85f83018561037d565b81810360208301526104ba818461045d565b90509392505050565b5f80fd5b5f80fd5b7f4e487b71000000000000000000000000000000000000000000000000000000005f52604160045260245ffd5b6105018261044d565b810181811067ffffffffffffffff821117156105205761051f6104cb565b5b80604052505050565b5f6105326103a5565b905061053e82826104f8565b919050565b5f67ffffffffffffffff82111561055d5761055c6104cb565b5b6105668261044d565b9050602081019050919050565b828183375f83830152505050565b5f61059361058e84610543565b610529565b9050828152602081018484840111156105af576105ae6104c7565b5b6105ba848285610573565b509392505050565b5f82601f8301126105d6576105d56104c3565b5b81356105e6848260208601610581565b91505092915050565b5f8060408385031215610605576106046103ae565b5b5f83013567ffffffffffffffff811115610622576106216103b2565b5b61062e858286016105c2565b925050602061063f858286016103cc565b9150509250929050565b5f6020828403121561065e5761065d6103ae565b5b5f82013567ffffffffffffffff81111561067b5761067a6103b2565b5b610687848285016105c2565b91505092915050565b7f4e487b71000000000000000000000000000000000000000000000000000000005f52602260045260245ffd5b5f60028204905060018216806106d457607f821691505b6020821081036106e7576106e6610690565b5b50919050565b5f819050815f5260205f209050919050565b5f6020601f8301049050919050565b5f82821b905092915050565b5f600883026107497fffffffffffffffffffffffffffffffffffffffffffffffffffffffffffffffff8261070e565b610753868361070e565b95508019841693508086168417925050509392505050565b5f819050919050565b5f61078e61078961078484610374565b61076b565b610374565b9050919050565b5f819050919050565b6107a783610774565b6107bb6107b382610795565b84845461071a565b825550505050565b5f90565b6107cf6107c3565b6107da81848461079e565b505050565b5b818110156107fd576107f25f826107c7565b6001810190506107e0565b5050565b601f82111561084257610813816106ed565b61081c846106ff565b8101602085101561082b578190505b61083f610837856106ff565b8301826107df565b50505b505050565b5f82821c905092915050565b5f6108625f1984600802610847565b1980831691505092915050565b5f61087a8383610853565b9150826002028217905092915050565b6108938261040b565b67ffffffffffffffff8111156108ac576108ab6104cb565b5b6108b682546106bd565b6108c1828285610801565b5f60209050601f8311600181146108f2575f84156108e0578287015190505b6108ea858261086f565b865550610951565b601f198416610900866106ed565b5f5b8281101561092757848901518255600182019150602085019450602081019050610902565b868310156109445784890151610940601f891682610853565b8355505b6001600288020188555050505b505050505050565b5f81905092915050565b5f61096d8261040b565b6109778185610959565b9350610987818560208601610425565b80840191505092915050565b5f61099e8284610963565b91508190509291505056fea26469706673582212202236de0f508a95d0083ff0fc3a764a76a347506de15aca989c50bdadd02b0d8464736f6c63430008160033a2646970667358221220e03f3bbd8e43b16ea856c5cedfe20842af9e2e77a3a3d2fbf97ed4d1a5c4ed0564736f6c63430008160033",
					"opcodes": "PUSH1 0x80 PUSH1 0x40 MSTORE CALLVALUE DUP1 ISZERO PUSH2 0xF JUMPI PUSH0 DUP1 REVERT JUMPDEST POP PUSH2 0xC97 DUP1 PUSH2 0x1D PUSH0 CODECOPY PUSH0 RETURN INVALID PUSH1 0x80 PUSH1 0x40 MSTORE CALLVALUE DUP1 ISZERO PUSH2 0xF JUMPI PUSH0 DUP1 REVERT JUMPDEST POP PUSH1 0x4 CALLDATASIZE LT PUSH2 0x34 JUMPI PUSH0 CALLDATALOAD PUSH1 0xE0 SHR DUP1 PUSH4 0x6BE0D6BF EQ PUSH2 0x38 JUMPI DUP1 PUSH4 0x9FA05B28 EQ PUSH2 0x56 JUMPI JUMPDEST PUSH0 DUP1 REVERT JUMPDEST PUSH2 0x40 PUSH2 0x60 JUMP JUMPDEST PUSH1 0x40 MLOAD PUSH2 0x4D SWAP2 SWAP1 PUSH2 0x170 JUMP JUMPDEST PUSH1 0x40 MLOAD DUP1 SWAP2 SUB SWAP1 RETURN JUMPDEST PUSH2 0x5E PUSH2 0x83 JUMP JUMPDEST STOP JUMPDEST PUSH0 DUP1 SLOAD SWAP1 PUSH2 0x100 EXP SWAP1 DIV PUSH20 0xFFFFFFFFFFFFFFFFFFFFFFFFFFFFFFFFFFFFFFFF AND DUP2 JUMP JUMPDEST PUSH1 0x40 MLOAD PUSH2 0x8F SWAP1 PUSH2 0xE9 JUMP JUMPDEST PUSH1 0x40 MLOAD DUP1 SWAP2 SUB SWAP1 PUSH0 CREATE DUP1 ISZERO DUP1 ISZERO PUSH2 0xA8 JUMPI RETURNDATASIZE PUSH0 DUP1 RETURNDATACOPY RETURNDATASIZE PUSH0 REVERT JUMPDEST POP PUSH0 DUP1 PUSH2 0x100 EXP DUP2 SLOAD DUP2 PUSH20 0xFFFFFFFFFFFFFFFFFFFFFFFFFFFFFFFFFFFFFFFF MUL NOT AND SWAP1 DUP4 PUSH20 0xFFFFFFFFFFFFFFFFFFFFFFFFFFFFFFFFFFFFFFFF AND MUL OR SWAP1 SSTORE POP JUMP JUMPDEST PUSH2 0xAD8 DUP1 PUSH2 0x18A DUP4 CODECOPY ADD SWAP1 JUMP JUMPDEST PUSH0 PUSH20 0xFFFFFFFFFFFFFFFFFFFFFFFFFFFFFFFFFFFFFFFF DUP3 AND SWAP1 POP SWAP2 SWAP1 POP JUMP JUMPDEST PUSH0 DUP2 SWAP1 POP SWAP2 SWAP1 POP JUMP JUMPDEST PUSH0 PUSH2 0x138 PUSH2 0x133 PUSH2 0x12E DUP5 PUSH2 0xF6 JUMP JUMPDEST PUSH2 0x115 JUMP JUMPDEST PUSH2 0xF6 JUMP JUMPDEST SWAP1 POP SWAP2 SWAP1 POP JUMP JUMPDEST PUSH0 PUSH2 0x149 DUP3 PUSH2 0x11E JUMP JUMPDEST SWAP1 POP SWAP2 SWAP1 POP JUMP JUMPDEST PUSH0 PUSH2 0x15A DUP3 PUSH2 0x13F JUMP JUMPDEST SWAP1 POP SWAP2 SWAP1 POP JUMP JUMPDEST PUSH2 0x16A DUP2 PUSH2 0x150 JUMP JUMPDEST DUP3 MSTORE POP POP JUMP JUMPDEST PUSH0 PUSH1 0x20 DUP3 ADD SWAP1 POP PUSH2 0x183 PUSH0 DUP4 ADD DUP5 PUSH2 0x161 JUMP JUMPDEST SWAP3 SWAP2 POP POP JUMP INVALID PUSH1 0x80 PUSH1 0x40 MSTORE PUSH1 0x1 PUSH0 DUP1 PUSH2 0x100 EXP DUP2 SLOAD DUP2 PUSH1 0xFF MUL NOT AND SWAP1 DUP4 ISZERO ISZERO MUL OR SWAP1 SSTORE POP PUSH32 0x7465737400000000000000000000000000000000000000000000000000000000 PUSH0 PUSH1 0x1 PUSH2 0x100 EXP DUP2 SLOAD DUP2 PUSH4 0xFFFFFFFF MUL NOT AND SWAP1 DUP4 PUSH1 0xE0 SHR MUL OR SWAP1 SSTORE POP PUSH0 PUSH1 0x1 SSTORE PUSH0 DUP1 EQ DUP1 PUSH2 0x6C JUMPI POP PUSH1 0x1 DUP1 EQ JUMPDEST PUSH1 0x3 PUSH0 PUSH2 0x100 EXP DUP2 SLOAD DUP2 PUSH1 0xFF MUL NOT AND SWAP1 DUP4 ISZERO ISZERO MUL OR SWAP1 SSTORE POP PUSH1 0x1 PUSH1 0x5 PUSH0 PUSH2 0x100 EXP DUP2 SLOAD DUP2 PUSH1 0xFF MUL NOT AND SWAP1 DUP4 PUSH1 0x2 DUP2 GT ISZERO PUSH2 0xA9 JUMPI PUSH2 0xA8 PUSH2 0xBF JUMP JUMPDEST JUMPDEST MUL OR SWAP1 SSTORE POP CALLVALUE DUP1 ISZERO PUSH2 0xB9 JUMPI PUSH0 DUP1 REVERT JUMPDEST POP PUSH2 0xEC JUMP JUMPDEST PUSH32 0x4E487B7100000000000000000000000000000000000000000000000000000000 PUSH0 MSTORE PUSH1 0x21 PUSH1 0x4 MSTORE PUSH1 0x24 PUSH0 REVERT JUMPDEST PUSH2 0x9DF DUP1 PUSH2 0xF9 PUSH0 CODECOPY PUSH0 RETURN INVALID PUSH1 0x80 PUSH1 0x40 MSTORE CALLVALUE DUP1 ISZERO PUSH2 0xF JUMPI PUSH0 DUP1 REVERT JUMPDEST POP PUSH1 0x4 CALLDATASIZE LT PUSH2 0x86 JUMPI PUSH0 CALLDATALOAD PUSH1 0xE0 SHR DUP1 PUSH4 0x5EC0E9C9 GT PUSH2 0x59 JUMPI DUP1 PUSH4 0x5EC0E9C9 EQ PUSH2 0x102 JUMPI DUP1 PUSH4 0x69404EBD EQ PUSH2 0x133 JUMPI DUP1 PUSH4 0x8F1D4226 EQ PUSH2 0x14F JUMPI DUP1 PUSH4 0x96E567F4 EQ PUSH2 0x16B JUMPI PUSH2 0x86 JUMP JUMPDEST DUP1 PUSH4 0xDBE671F EQ PUSH2 0x8A JUMPI DUP1 PUSH4 0xE4C2805 EQ PUSH2 0xA8 JUMPI DUP1 PUSH4 0x2E64CEC1 EQ PUSH2 0xC6 JUMPI DUP1 PUSH4 0x471F7CDF EQ PUSH2 0xE4 JUMPI JUMPDEST PUSH0 DUP1 REVERT JUMPDEST PUSH2 0x92 PUSH2 0x19B JUMP JUMPDEST PUSH1 0x40 MLOAD PUSH2 0x9F SWAP2 SWAP1 PUSH2 0x35B JUMP JUMPDEST PUSH1 0x40 MLOAD DUP1 SWAP2 SUB SWAP1 RETURN JUMPDEST PUSH2 0xB0 PUSH2 0x1AD JUMP JUMPDEST PUSH1 0x40 MLOAD PUSH2 0xBD SWAP2 SWAP1 PUSH2 0x35B JUMP JUMPDEST PUSH1 0x40 MLOAD DUP1 SWAP2 SUB SWAP1 RETURN JUMPDEST PUSH2 0xCE PUSH2 0x1C2 JUMP JUMPDEST PUSH1 0x40 MLOAD PUSH2 0xDB SWAP2 SWAP1 PUSH2 0x38C JUMP JUMPDEST PUSH1 0x40 MLOAD DUP1 SWAP2 SUB SWAP1 RETURN JUMPDEST PUSH2 0xEC PUSH2 0x1CB JUMP JUMPDEST PUSH1 0x40 MLOAD PUSH2 0xF9 SWAP2 SWAP1 PUSH2 0x38C JUMP JUMPDEST PUSH1 0x40 MLOAD DUP1 SWAP2 SUB SWAP1 RETURN JUMPDEST PUSH2 0x11C PUSH1 0x4 DUP1 CALLDATASIZE SUB DUP2 ADD SWAP1 PUSH2 0x117 SWAP2 SWAP1 PUSH2 0x3E0 JUMP JUMPDEST PUSH2 0x1D1 JUMP JUMPDEST PUSH1 0x40 MLOAD PUSH2 0x12A SWAP3 SWAP2 SWAP1 PUSH2 0x495 JUMP JUMPDEST PUSH1 0x40 MLOAD DUP1 SWAP2 SUB SWAP1 RETURN JUMPDEST PUSH2 0x14D PUSH1 0x4 DUP1 CALLDATASIZE SUB DUP2 ADD SWAP1 PUSH2 0x148 SWAP2 SWAP1 PUSH2 0x3E0 JUMP JUMPDEST PUSH2 0x286 JUMP JUMPDEST STOP JUMPDEST PUSH2 0x169 PUSH1 0x4 DUP1 CALLDATASIZE SUB DUP2 ADD SWAP1 PUSH2 0x164 SWAP2 SWAP1 PUSH2 0x5EF JUMP JUMPDEST PUSH2 0x290 JUMP JUMPDEST STOP JUMPDEST PUSH2 0x185 PUSH1 0x4 DUP1 CALLDATASIZE SUB DUP2 ADD SWAP1 PUSH2 0x180 SWAP2 SWAP1 PUSH2 0x649 JUMP JUMPDEST PUSH2 0x314 JUMP JUMPDEST PUSH1 0x40 MLOAD PUSH2 0x192 SWAP2 SWAP1 PUSH2 0x38C JUMP JUMPDEST PUSH1 0x40 MLOAD DUP1 SWAP2 SUB SWAP1 RETURN JUMPDEST PUSH1 0x3 PUSH0 SWAP1 SLOAD SWAP1 PUSH2 0x100 EXP SWAP1 DIV PUSH1 0xFF AND DUP2 JUMP JUMPDEST PUSH0 PUSH1 0x3 PUSH0 SWAP1 SLOAD SWAP1 PUSH2 0x100 EXP SWAP1 DIV PUSH1 0xFF AND SWAP1 POP SWAP1 JUMP JUMPDEST PUSH0 PUSH1 0x1 SLOAD SWAP1 POP SWAP1 JUMP JUMPDEST PUSH1 0x1 SLOAD DUP2 JUMP JUMPDEST PUSH1 0x4 DUP2 DUP2 SLOAD DUP2 LT PUSH2 0x1E0 JUMPI PUSH0 DUP1 REVERT JUMPDEST SWAP1 PUSH0 MSTORE PUSH1 0x20 PUSH0 KECCAK256 SWAP1 PUSH1 0x2 MUL ADD PUSH0 SWAP2 POP SWAP1 POP DUP1 PUSH0 ADD SLOAD SWAP1 DUP1 PUSH1 0x1 ADD DUP1 SLOAD PUSH2 0x205 SWAP1 PUSH2 0x6BD JUMP JUMPDEST DUP1 PUSH1 0x1F ADD PUSH1 0x20 DUP1 SWAP2 DIV MUL PUSH1 0x20 ADD PUSH1 0x40 MLOAD SWAP1 DUP2 ADD PUSH1 0x40 MSTORE DUP1 SWAP3 SWAP2 SWAP1 DUP2 DUP2 MSTORE PUSH1 0x20 ADD DUP3 DUP1 SLOAD PUSH2 0x231 SWAP1 PUSH2 0x6BD JUMP JUMPDEST DUP1 ISZERO PUSH2 0x27C JUMPI DUP1 PUSH1 0x1F LT PUSH2 0x253 JUMPI PUSH2 0x100 DUP1 DUP4 SLOAD DIV MUL DUP4 MSTORE SWAP2 PUSH1 0x20 ADD SWAP2 PUSH2 0x27C JUMP JUMPDEST DUP3 ADD SWAP2 SWAP1 PUSH0 MSTORE PUSH1 0x20 PUSH0 KECCAK256 SWAP1 JUMPDEST DUP2 SLOAD DUP2 MSTORE SWAP1 PUSH1 0x1 ADD SWAP1 PUSH1 0x20 ADD DUP1 DUP4 GT PUSH2 0x25F JUMPI DUP3 SWAP1 SUB PUSH1 0x1F AND DUP3 ADD SWAP2 JUMPDEST POP POP POP POP POP SWAP1 POP DUP3 JUMP JUMPDEST DUP1 PUSH1 0x1 DUP2 SWAP1 SSTORE POP POP JUMP JUMPDEST PUSH1 0x4 PUSH1 0x40 MLOAD DUP1 PUSH1 0x40 ADD PUSH1 0x40 MSTORE DUP1 DUP4 DUP2 MSTORE PUSH1 0x20 ADD DUP5 DUP2 MSTORE POP SWAP1 DUP1 PUSH1 0x1 DUP2 SLOAD ADD DUP1 DUP3 SSTORE DUP1 SWAP2 POP POP PUSH1 0x1 SWAP1 SUB SWAP1 PUSH0 MSTORE PUSH1 0x20 PUSH0 KECCAK256 SWAP1 PUSH1 0x2 MUL ADD PUSH0 SWAP1 SWAP2 SWAP1 SWAP2 SWAP1 SWAP2 POP PUSH0 DUP3 ADD MLOAD DUP2 PUSH0 ADD SSTORE PUSH1 0x20 DUP3 ADD MLOAD DUP2 PUSH1 0x1 ADD SWAP1 DUP2 PUSH2 0x2EA SWAP2 SWAP1 PUSH2 0x88A JUMP JUMPDEST POP POP POP DUP1 PUSH1 0x6 DUP4 PUSH1 0x40 MLOAD PUSH2 0x2FE SWAP2 SWAP1 PUSH2 0x993 JUMP JUMPDEST SWAP1 DUP2 MSTORE PUSH1 0x20 ADD PUSH1 0x40 MLOAD DUP1 SWAP2 SUB SWAP1 KECCAK256 DUP2 SWAP1 SSTORE POP POP POP JUMP JUMPDEST PUSH1 0x6 DUP2 DUP1 MLOAD PUSH1 0x20 DUP2 ADD DUP3 ADD DUP1 MLOAD DUP5 DUP3 MSTORE PUSH1 0x20 DUP4 ADD PUSH1 0x20 DUP6 ADD KECCAK256 DUP2 DUP4 MSTORE DUP1 SWAP6 POP POP POP POP POP POP PUSH0 SWAP2 POP SWAP1 POP SLOAD DUP2 JUMP JUMPDEST PUSH0 DUP2 ISZERO ISZERO SWAP1 POP SWAP2 SWAP1 POP JUMP JUMPDEST PUSH2 0x355 DUP2 PUSH2 0x341 JUMP JUMPDEST DUP3 MSTORE POP POP JUMP JUMPDEST PUSH0 PUSH1 0x20 DUP3 ADD SWAP1 POP PUSH2 0x36E PUSH0 DUP4 ADD DUP5 PUSH2 0x34C JUMP JUMPDEST SWAP3 SWAP2 POP POP JUMP JUMPDEST PUSH0 DUP2 SWAP1 POP SWAP2 SWAP1 POP JUMP JUMPDEST PUSH2 0x386 DUP2 PUSH2 0x374 JUMP JUMPDEST DUP3 MSTORE POP POP JUMP JUMPDEST PUSH0 PUSH1 0x20 DUP3 ADD SWAP1 POP PUSH2 0x39F PUSH0 DUP4 ADD DUP5 PUSH2 0x37D JUMP JUMPDEST SWAP3 SWAP2 POP POP JUMP JUMPDEST PUSH0 PUSH1 0x40 MLOAD SWAP1 POP SWAP1 JUMP JUMPDEST PUSH0 DUP1 REVERT JUMPDEST PUSH0 DUP1 REVERT JUMPDEST PUSH2 0x3BF DUP2 PUSH2 0x374 JUMP JUMPDEST DUP2 EQ PUSH2 0x3C9 JUMPI PUSH0 DUP1 REVERT JUMPDEST POP JUMP JUMPDEST PUSH0 DUP2 CALLDATALOAD SWAP1 POP PUSH2 0x3DA DUP2 PUSH2 0x3B6 JUMP JUMPDEST SWAP3 SWAP2 POP POP JUMP JUMPDEST PUSH0 PUSH1 0x20 DUP3 DUP5 SUB SLT ISZERO PUSH2 0x3F5 JUMPI PUSH2 0x3F4 PUSH2 0x3AE JUMP JUMPDEST JUMPDEST PUSH0 PUSH2 0x402 DUP5 DUP3 DUP6 ADD PUSH2 0x3CC JUMP JUMPDEST SWAP2 POP POP SWAP3 SWAP2 POP POP JUMP JUMPDEST PUSH0 DUP2 MLOAD SWAP1 POP SWAP2 SWAP1 POP JUMP JUMPDEST PUSH0 DUP3 DUP3 MSTORE PUSH1 0x20 DUP3 ADD SWAP1 POP SWAP3 SWAP2 POP POP JUMP JUMPDEST PUSH0 JUMPDEST DUP4 DUP2 LT ISZERO PUSH2 0x442 JUMPI DUP1 DUP3 ADD MLOAD DUP2 DUP5 ADD MSTORE PUSH1 0x20 DUP2 ADD SWAP1 POP PUSH2 0x427 JUMP JUMPDEST PUSH0 DUP5 DUP5 ADD MSTORE POP POP POP POP JUMP JUMPDEST PUSH0 PUSH1 0x1F NOT PUSH1 0x1F DUP4 ADD AND SWAP1 POP SWAP2 SWAP1 POP JUMP JUMPDEST PUSH0 PUSH2 0x467 DUP3 PUSH2 0x40B JUMP JUMPDEST PUSH2 0x471 DUP2 DUP6 PUSH2 0x415 JUMP JUMPDEST SWAP4 POP PUSH2 0x481 DUP2 DUP6 PUSH1 0x20 DUP7 ADD PUSH2 0x425 JUMP JUMPDEST PUSH2 0x48A DUP2 PUSH2 0x44D JUMP JUMPDEST DUP5 ADD SWAP2 POP POP SWAP3 SWAP2 POP POP JUMP JUMPDEST PUSH0 PUSH1 0x40 DUP3 ADD SWAP1 POP PUSH2 0x4A8 PUSH0 DUP4 ADD DUP6 PUSH2 0x37D JUMP JUMPDEST DUP2 DUP2 SUB PUSH1 0x20 DUP4 ADD MSTORE PUSH2 0x4BA DUP2 DUP5 PUSH2 0x45D JUMP JUMPDEST SWAP1 POP SWAP4 SWAP3 POP POP POP JUMP JUMPDEST PUSH0 DUP1 REVERT JUMPDEST PUSH0 DUP1 REVERT JUMPDEST PUSH32 0x4E487B7100000000000000000000000000000000000000000000000000000000 PUSH0 MSTORE PUSH1 0x41 PUSH1 0x4 MSTORE PUSH1 0x24 PUSH0 REVERT JUMPDEST PUSH2 0x501 DUP3 PUSH2 0x44D JUMP JUMPDEST DUP2 ADD DUP2 DUP2 LT PUSH8 0xFFFFFFFFFFFFFFFF DUP3 GT OR ISZERO PUSH2 0x520 JUMPI PUSH2 0x51F PUSH2 0x4CB JUMP JUMPDEST JUMPDEST DUP1 PUSH1 0x40 MSTORE POP POP POP JUMP JUMPDEST PUSH0 PUSH2 0x532 PUSH2 0x3A5 JUMP JUMPDEST SWAP1 POP PUSH2 0x53E DUP3 DUP3 PUSH2 0x4F8 JUMP JUMPDEST SWAP2 SWAP1 POP JUMP JUMPDEST PUSH0 PUSH8 0xFFFFFFFFFFFFFFFF DUP3 GT ISZERO PUSH2 0x55D JUMPI PUSH2 0x55C PUSH2 0x4CB JUMP JUMPDEST JUMPDEST PUSH2 0x566 DUP3 PUSH2 0x44D JUMP JUMPDEST SWAP1 POP PUSH1 0x20 DUP2 ADD SWAP1 POP SWAP2 SWAP1 POP JUMP JUMPDEST DUP3 DUP2 DUP4 CALLDATACOPY PUSH0 DUP4 DUP4 ADD MSTORE POP POP POP JUMP JUMPDEST PUSH0 PUSH2 0x593 PUSH2 0x58E DUP5 PUSH2 0x543 JUMP JUMPDEST PUSH2 0x529 JUMP JUMPDEST SWAP1 POP DUP3 DUP2 MSTORE PUSH1 0x20 DUP2 ADD DUP5 DUP5 DUP5 ADD GT ISZERO PUSH2 0x5AF JUMPI PUSH2 0x5AE PUSH2 0x4C7 JUMP JUMPDEST JUMPDEST PUSH2 0x5BA DUP5 DUP3 DUP6 PUSH2 0x573 JUMP JUMPDEST POP SWAP4 SWAP3 POP POP POP JUMP JUMPDEST PUSH0 DUP3 PUSH1 0x1F DUP4 ADD SLT PUSH2 0x5D6 JUMPI PUSH2 0x5D5 PUSH2 0x4C3 JUMP JUMPDEST JUMPDEST DUP2 CALLDATALOAD PUSH2 0x5E6 DUP5 DUP3 PUSH1 0x20 DUP7 ADD PUSH2 0x581 JUMP JUMPDEST SWAP2 POP POP SWAP3 SWAP2 POP POP JUMP JUMPDEST PUSH0 DUP1 PUSH1 0x40 DUP4 DUP6 SUB SLT ISZERO PUSH2 0x605 JUMPI PUSH2 0x604 PUSH2 0x3AE JUMP JUMPDEST JUMPDEST PUSH0 DUP4 ADD CALLDATALOAD PUSH8 0xFFFFFFFFFFFFFFFF DUP2 GT ISZERO PUSH2 0x622 JUMPI PUSH2 0x621 PUSH2 0x3B2 JUMP JUMPDEST JUMPDEST PUSH2 0x62E DUP6 DUP3 DUP7 ADD PUSH2 0x5C2 JUMP JUMPDEST SWAP3 POP POP PUSH1 0x20 PUSH2 0x63F DUP6 DUP3 DUP7 ADD PUSH2 0x3CC JUMP JUMPDEST SWAP2 POP POP SWAP3 POP SWAP3 SWAP1 POP JUMP JUMPDEST PUSH0 PUSH1 0x20 DUP3 DUP5 SUB SLT ISZERO PUSH2 0x65E JUMPI PUSH2 0x65D PUSH2 0x3AE JUMP JUMPDEST JUMPDEST PUSH0 DUP3 ADD CALLDATALOAD PUSH8 0xFFFFFFFFFFFFFFFF DUP2 GT ISZERO PUSH2 0x67B JUMPI PUSH2 0x67A PUSH2 0x3B2 JUMP JUMPDEST JUMPDEST PUSH2 0x687 DUP5 DUP3 DUP6 ADD PUSH2 0x5C2 JUMP JUMPDEST SWAP2 POP POP SWAP3 SWAP2 POP POP JUMP JUMPDEST PUSH32 0x4E487B7100000000000000000000000000000000000000000000000000000000 PUSH0 MSTORE PUSH1 0x22 PUSH1 0x4 MSTORE PUSH1 0x24 PUSH0 REVERT JUMPDEST PUSH0 PUSH1 0x2 DUP3 DIV SWAP1 POP PUSH1 0x1 DUP3 AND DUP1 PUSH2 0x6D4 JUMPI PUSH1 0x7F DUP3 AND SWAP2 POP JUMPDEST PUSH1 0x20 DUP3 LT DUP2 SUB PUSH2 0x6E7 JUMPI PUSH2 0x6E6 PUSH2 0x690 JUMP JUMPDEST JUMPDEST POP SWAP2 SWAP1 POP JUMP JUMPDEST PUSH0 DUP2 SWAP1 POP DUP2 PUSH0 MSTORE PUSH1 0x20 PUSH0 KECCAK256 SWAP1 POP SWAP2 SWAP1 POP JUMP JUMPDEST PUSH0 PUSH1 0x20 PUSH1 0x1F DUP4 ADD DIV SWAP1 POP SWAP2 SWAP1 POP JUMP JUMPDEST PUSH0 DUP3 DUP3 SHL SWAP1 POP SWAP3 SWAP2 POP POP JUMP JUMPDEST PUSH0 PUSH1 0x8 DUP4 MUL PUSH2 0x749 PUSH32 0xFFFFFFFFFFFFFFFFFFFFFFFFFFFFFFFFFFFFFFFFFFFFFFFFFFFFFFFFFFFFFFFF DUP3 PUSH2 0x70E JUMP JUMPDEST PUSH2 0x753 DUP7 DUP4 PUSH2 0x70E JUMP JUMPDEST SWAP6 POP DUP1 NOT DUP5 AND SWAP4 POP DUP1 DUP7 AND DUP5 OR SWAP3 POP POP POP SWAP4 SWAP3 POP POP POP JUMP JUMPDEST PUSH0 DUP2 SWAP1 POP SWAP2 SWAP1 POP JUMP JUMPDEST PUSH0 PUSH2 0x78E PUSH2 0x789 PUSH2 0x784 DUP5 PUSH2 0x374 JUMP JUMPDEST PUSH2 0x76B JUMP JUMPDEST PUSH2 0x374 JUMP JUMPDEST SWAP1 POP SWAP2 SWAP1 POP JUMP JUMPDEST PUSH0 DUP2 SWAP1 POP SWAP2 SWAP1 POP JUMP JUMPDEST PUSH2 0x7A7 DUP4 PUSH2 0x774 JUMP JUMPDEST PUSH2 0x7BB PUSH2 0x7B3 DUP3 PUSH2 0x795 JUMP JUMPDEST DUP5 DUP5 SLOAD PUSH2 0x71A JUMP JUMPDEST DUP3 SSTORE POP POP POP POP JUMP JUMPDEST PUSH0 SWAP1 JUMP JUMPDEST PUSH2 0x7CF PUSH2 0x7C3 JUMP JUMPDEST PUSH2 0x7DA DUP2 DUP5 DUP5 PUSH2 0x79E JUMP JUMPDEST POP POP POP JUMP JUMPDEST JUMPDEST DUP2 DUP2 LT ISZERO PUSH2 0x7FD JUMPI PUSH2 0x7F2 PUSH0 DUP3 PUSH2 0x7C7 JUMP JUMPDEST PUSH1 0x1 DUP2 ADD SWAP1 POP PUSH2 0x7E0 JUMP JUMPDEST POP POP JUMP JUMPDEST PUSH1 0x1F DUP3 GT ISZERO PUSH2 0x842 JUMPI PUSH2 0x813 DUP2 PUSH2 0x6ED JUMP JUMPDEST PUSH2 0x81C DUP5 PUSH2 0x6FF JUMP JUMPDEST DUP2 ADD PUSH1 0x20 DUP6 LT ISZERO PUSH2 0x82B JUMPI DUP2 SWAP1 POP JUMPDEST PUSH2 0x83F PUSH2 0x837 DUP6 PUSH2 0x6FF JUMP JUMPDEST DUP4 ADD DUP3 PUSH2 0x7DF JUMP JUMPDEST POP POP JUMPDEST POP POP POP JUMP JUMPDEST PUSH0 DUP3 DUP3 SHR SWAP1 POP SWAP3 SWAP2 POP POP JUMP JUMPDEST PUSH0 PUSH2 0x862 PUSH0 NOT DUP5 PUSH1 0x8 MUL PUSH2 0x847 JUMP JUMPDEST NOT DUP1 DUP4 AND SWAP2 POP POP SWAP3 SWAP2 POP POP JUMP JUMPDEST PUSH0 PUSH2 0x87A DUP4 DUP4 PUSH2 0x853 JUMP JUMPDEST SWAP2 POP DUP3 PUSH1 0x2 MUL DUP3 OR SWAP1 POP SWAP3 SWAP2 POP POP JUMP JUMPDEST PUSH2 0x893 DUP3 PUSH2 0x40B JUMP JUMPDEST PUSH8 0xFFFFFFFFFFFFFFFF DUP2 GT ISZERO PUSH2 0x8AC JUMPI PUSH2 0x8AB PUSH2 0x4CB JUMP JUMPDEST JUMPDEST PUSH2 0x8B6 DUP3 SLOAD PUSH2 0x6BD JUMP JUMPDEST PUSH2 0x8C1 DUP3 DUP3 DUP6 PUSH2 0x801 JUMP JUMPDEST PUSH0 PUSH1 0x20 SWAP1 POP PUSH1 0x1F DUP4 GT PUSH1 0x1 DUP2 EQ PUSH2 0x8F2 JUMPI PUSH0 DUP5 ISZERO PUSH2 0x8E0 JUMPI DUP3 DUP8 ADD MLOAD SWAP1 POP JUMPDEST PUSH2 0x8EA DUP6 DUP3 PUSH2 0x86F JUMP JUMPDEST DUP7 SSTORE POP PUSH2 0x951 JUMP JUMPDEST PUSH1 0x1F NOT DUP5 AND PUSH2 0x900 DUP7 PUSH2 0x6ED JUMP JUMPDEST PUSH0 JUMPDEST DUP3 DUP2 LT ISZERO PUSH2 0x927 JUMPI DUP5 DUP10 ADD MLOAD DUP3 SSTORE PUSH1 0x1 DUP3 ADD SWAP2 POP PUSH1 0x20 DUP6 ADD SWAP5 POP PUSH1 0x20 DUP2 ADD SWAP1 POP PUSH2 0x902 JUMP JUMPDEST DUP7 DUP4 LT ISZERO PUSH2 0x944 JUMPI DUP5 DUP10 ADD MLOAD PUSH2 0x940 PUSH1 0x1F DUP10 AND DUP3 PUSH2 0x853 JUMP JUMPDEST DUP4 SSTORE POP JUMPDEST PUSH1 0x1 PUSH1 0x2 DUP9 MUL ADD DUP9 SSTORE POP POP POP JUMPDEST POP POP POP POP POP POP JUMP JUMPDEST PUSH0 DUP2 SWAP1 POP SWAP3 SWAP2 POP POP JUMP JUMPDEST PUSH0 PUSH2 0x96D DUP3 PUSH2 0x40B JUMP JUMPDEST PUSH2 0x977 DUP2 DUP6 PUSH2 0x959 JUMP JUMPDEST SWAP4 POP PUSH2 0x987 DUP2 DUP6 PUSH1 0x20 DUP7 ADD PUSH2 0x425 JUMP JUMPDEST DUP1 DUP5 ADD SWAP2 POP POP SWAP3 SWAP2 POP POP JUMP JUMPDEST PUSH0 PUSH2 0x99E DUP3 DUP5 PUSH2 0x963 JUMP JUMPDEST SWAP2 POP DUP2 SWAP1 POP SWAP3 SWAP2 POP POP JUMP INVALID LOG2 PUSH5 0x6970667358 0x22 SLT KECCAK256 0x22 CALLDATASIZE 0xDE 0xF POP DUP11 SWAP6 0xD0 ADDMOD EXTCODEHASH CREATE 0xFC GASPRICE PUSH23 0x4A76A347506DE15ACA989C50BDADD02B0D8464736F6C63 NUMBER STOP ADDMOD AND STOP CALLER LOG2 PUSH5 0x6970667358 0x22 SLT KECCAK256 0xE0 EXTCODEHASH EXTCODESIZE 0xBD DUP15 NUMBER 0xB1 PUSH15 0xA856C5CEDFE20842AF9E2E77A3A3D2 0xFB 0xF9 PUSH31 0xD4D1A5C4ED0564736F6C634300081600330000000000000000000000000000 "
				},
				"gasEstimates": {
					"creation": {
						"codeDepositCost": "644600",
						"executionCost": "674",
						"totalCost": "645274"
					},
					"external": {
						"CreateSimpleStorageContract()": "infinite",
						"simpleStorage()": "infinite"
					}
				},
				"methodIdentifiers": {
					"CreateSimpleStorageContract()": "9fa05b28",
					"simpleStorage()": "6be0d6bf"
				}
			},
			"storageLayout": {
				"storage": [
					{
						"astId": 108,
						"contract": "contracts/StorageFactory.sol:StorageFactory",
						"label": "simpleStorage",
						"offset": 0,
						"slot": "0",
						"type": "t_contract(SimpleStorage)101"
					}
				],
				"types": {
					"t_contract(SimpleStorage)101": {
						"encoding": "inplace",
						"label": "contract SimpleStorage",
						"numberOfBytes": "20"
					}
				}
			},
			"userdoc": {
				"kind": "user",
				"methods": {},
				"version": 1
			}
		}
	}
}