{
  "contractName": "SimpleStorage",
  "abi": [
    {
      "inputs": [
        {
          "internalType": "string",
          "name": "",
          "type": "string"
        }
      ],
      "name": "NametoNumber",
      "outputs": [
        {
          "internalType": "uint256",
          "name": "",
          "type": "uint256"
        }
      ],
      "stateMutability": "view",
      "type": "function"
    },
    {
      "inputs": [],
      "name": "favoriteNumber",
      "outputs": [
        {
          "internalType": "uint256",
          "name": "",
          "type": "uint256"
        }
      ],
      "stateMutability": "view",
      "type": "function"
    },
    {
      "inputs": [
        {
          "internalType": "uint256",
          "name": "",
          "type": "uint256"
        }
      ],
      "name": "list_of_people",
      "outputs": [
        {
          "internalType": "uint256",
          "name": "favoriteNumber",
          "type": "uint256"
        },
        {
          "internalType": "string",
          "name": "name",
          "type": "string"
        }
      ],
      "stateMutability": "view",
      "type": "function"
    },
    {
      "inputs": [
        {
          "internalType": "uint256",
          "name": "_favoriteNumber",
          "type": "uint256"
        }
      ],
      "name": "Store",
      "outputs": [],
      "stateMutability": "nonpayable",
      "type": "function"
    },
    {
      "inputs": [],
      "name": "retrieve",
      "outputs": [
        {
          "internalType": "uint256",
          "name": "",
          "type": "uint256"
        }
      ],
      "stateMutability": "view",
      "type": "function"
    },
    {
      "inputs": [
        {
          "internalType": "string",
          "name": "_name",
          "type": "string"
        },
        {
          "internalType": "uint256",
          "name": "_favoriteNumber",
          "type": "uint256"
        }
      ],
      "name": "add_list_of_person",
      "outputs": [],
      "stateMutability": "nonpayable",
      "type": "function"
    }
  ],
  "bytecode": "0x608060405260016000806101000a81548160ff0219169083151502179055507f7465737400000000000000000000000000000000000000000000000000000000600060016101000a81548163ffffffff021916908360e01c0217905550600060015534801561006d57600080fd5b506105e38061007d6000396000f3fe608060405234801561001057600080fd5b50600436106100625760003560e01c80632e64cec114610067578063471f7cdf146100855780635ec0e9c9146100a357806369404ebd146101515780638f1d42261461017f57806396e567f414610244575b600080fd5b61006f610313565b6040518082815260200191505060405180910390f35b61008d61031d565b6040518082815260200191505060405180910390f35b6100cf600480360360208110156100b957600080fd5b8101908080359060200190929190505050610323565b6040518083815260200180602001828103825283818151815260200191508051906020019080838360005b838110156101155780820151818401526020810190506100fa565b50505050905090810190601f1680156101425780820380516001836020036101000a031916815260200191505b50935050505060405180910390f35b61017d6004803603602081101561016757600080fd5b81019080803590602001909291905050506103ef565b005b6102426004803603604081101561019557600080fd5b81019080803590602001906401000000008111156101b257600080fd5b8201836020820111156101c457600080fd5b803590602001918460018302840111640100000000831117156101e657600080fd5b91908080601f016020809104026020016040519081016040528093929190818152602001838380828437600081840152601f19601f820116905080830192505050505050509192919290803590602001909291905050506103f9565b005b6102fd6004803603602081101561025a57600080fd5b810190808035906020019064010000000081111561027757600080fd5b82018360208201111561028957600080fd5b803590602001918460018302840111640100000000831117156102ab57600080fd5b91908080601f016020809104026020016040519081016040528093929190818152602001838380828437600081840152601f19601f8201169050808301925050505050505091929192905050506104d4565b6040518082815260200191505060405180910390f35b6000600154905090565b60015481565b6003818154811061033357600080fd5b9060005260206000209060020201600091509050806000015490806001018054600181600116156101000203166002900480601f0160208091040260200160405190810160405280929190818152602001828054600181600116156101000203166002900480156103e55780601f106103ba576101008083540402835291602001916103e5565b820191906000526020600020905b8154815290600101906020018083116103c857829003601f168201915b5050505050905082565b8060018190555050565b6003604051806040016040528083815260200184815250908060018154018082558091505060019003906000526020600020906002020160009091909190915060008201518160000155602082015181600101908051906020019061045f929190610502565b505050806004836040518082805190602001908083835b602083106104995780518252602082019150602081019050602083039250610476565b6001836020036101000a0380198251168184511680821785525050505050509050019150509081526020016040518091039020819055505050565b6004818051602081018201805184825260208301602085012081835280955050505050506000915090505481565b828054600181600116156101000203166002900490600052602060002090601f016020900481019282610538576000855561057f565b82601f1061055157805160ff191683800117855561057f565b8280016001018555821561057f579182015b8281111561057e578251825591602001919060010190610563565b5b50905061058c9190610590565b5090565b5b808211156105a9576000816000905550600101610591565b509056fea26469706673582212209e2d87e7ca1b9c621f2b75b42fea6b676667130dc88150cd14e0e801beec7a6864736f6c63430007040033",
  "immutableReferences": {},
  "source": "// SPDX-License-Identifier: MIT\r\npragma solidity ^0.7.4;\r\n\r\ncontract SimpleStorage {\r\n    bool hasFavoriteNumber = true;\r\n    \r\n    bytes4 mybytes = \"test\";\r\n    \r\n    uint256 public favoriteNumber = 0;\r\n    \r\n    uint256[] list_of_favorite_number;\r\n    \r\n    struct Person {\r\n        uint256 favoriteNumber;\r\n        string name;\r\n    }\r\n\r\n    Person[] public list_of_people;\r\n\r\n    mapping(string => uint256) public NametoNumber;\r\n    \r\n    function Store(uint256 _favoriteNumber) public {\r\n        favoriteNumber = _favoriteNumber;\r\n    }\r\n    \r\n    function retrieve() public view returns(uint256){\r\n        return favoriteNumber;\r\n    }\r\n\r\n    function add_list_of_person(string memory  _name, uint256 _favoriteNumber) public{\r\n        list_of_people.push( Person(_favoriteNumber, _name) );\r\n        NametoNumber[_name] = _favoriteNumber;\r\n    }\r\n\r\n\r\n}\r\n",
  "sourcePath": "c:\\Users\\91856\\Desktop\\solidity work\\contracts\\test.sol",
  "compiler": {
    "name": "solc",
    "version": "0.7.4+commit.3f05b770.Emscripten.clang"
  },
  "schemaVersion": "3.4.16",
  "updatedAt": "2024-03-11T04:14:36.085Z",
  "devdoc": {
    "kind": "dev",
    "methods": {},
    "version": 1
  },
  "userdoc": {
    "kind": "user",
    "methods": {},
    "version": 1
  }
}